:10000000F8FF002011040000FB000300FB000300C8
:10001000FB000300FB000300FB000300FB000300E8
:10002000FB000300FB000300FB000300FB000300D8
:10003000FB000300FB000300FB000300FB000300C8
:10004000FB000300FB000300FB000300FB000300B8
:10040000FFFFFFFFFFFFFFFFFFFFFFFFFEFFFFFFFD
:1004100062B634F01BFFFEE7EED2BD3E83CB9E3CBE
:100420002ABDAE3F96B65ABDA5984ABEAF33923D9F
:10043000B4A09ABCEABF08BD8DCA7ABACE7D653E2B
:100440004C5EA7BDA1584B3EFF350ABDCDBED3BC07
:10045000A4F5893E1C2F23BFE0AE443F9905013E21
:10046000E051B43E1B281D3FC32D09BEC965ADBF79
:10047000621A2A3E6B8CC2BFBFE70CBF9414403E89
:10048000350254BEDF98653E18DE5A3D82CC223FCD
:100490005B63FB3D0E2F8A3FB2656D3D28C99DBC55
:1004A0006B9420BEE2FAE5BDD091BEBE1857083E5F
:1004B000FE28963F120C89BD1A5EAF3E602E0FBE1D
:1004C000AA82113EED4484BF09F50A3EBCDA8DBF15
:1004D0000A3E69BF9AE774BDAD91A03E96876B3E18
:1004E000B70C10BF29989B3F3A16B8BD73F0C13EB8
:1004F000169483BCAF39F73B876CF0BEDE4193BDE9
:100500006F45A13FF3AD233EDF05A53ECC40803BC8
:10051000E3F4D1BE823D923DAC0B3D3EEF8DE03D1C
:100520005D976B3F0A83C8BCD14F0CBD9F2A81BD2C
:100530008C12673E5A49113FCE96953DC584E63CE4
:100540005FBCA53E296549BF3749093E1008483EB2
:1005500024DB8DBDF2C01B3E14FB4C3EA7FB77BDD8
:1005600043D070BDBB8C9CBFAC62053E45F011BE54
:10057000A1A702BFEE9911C09A7A01BF86462DBE8F
:100580002F99BCBF63FF803F600D38BEF33E963E9F
:10059000C1E914BD4930873E1F1FC93D3F1E88BEBB
:1005A000100FBD3EE31A11BF3D593C3EFB2266BD14
:1005B0005DCBC03D9BAF8BBEE151454092BAC23E80
:1005C0007A67C5BE948A033FB6152FBEB7ADFDBD91
:1005D000B95F41BF8E7BA33E9F88003D8D6F9ABD62
:1005E000060B803FDC2B24BFAAB1683E5F919D3D86
:1005F000E09E60BEA023A13D30D2663C18CE68BC10
:10060000B8B69F3E3854483E7A5F5DBD5439053ECA
:10061000906C11BED0D9AABF34B860BF5FFF2A3E2C
:100620001DA96A3EE65F133F415F0DBF1FAEF33E5B
:10063000D65C9E3EBCECABBD256218BFA407A6BE2F
:10064000BCB264BCDD4ECEBDED489BBE65EA03BFC7
:10065000A84E033E7ACA54BE0485A1BEEE7FA3BB5A
:100660005AD1433E5EF8E33EC8A5823F9E059A3EBE
:10067000A1C50340DE48803E343EC1BB20CCC4BF90
:1006800004A47B3F0FE336BEF9738CBFE295C93EED
:10069000264B23BF04D29F3CDA38A73DCB420EBD88
:1006A0000B2FEB3E3FA20A3FAD171A3FEF2E073F3D
:1006B00068494A3E51F0C8BA8F11313D7D721F3EE4
:1006C000C67DEABD45AC4BBD250A31BEA50BBCBEFF
:1006D0004F73FA3E3C413F3F6F7E3EBEE561543F63
:1006E0006C1D303F641D103D4C40FABEC61270BDFB
:1006F00007566BBEF842B93E75DC873E527B123E10
:100700006AC5763EA79055BCDE25B73EFC4E813EBD
:100710000B44B13E0A0DEFBEF0B7AF3F8D2FEE3E5A
:100720007D2422BFE2A998BEDEBE6CBE035ADBBEAA
:10073000876E82BECA6B4BBEF5032DBFE85953BB13
:10074000B1CD193FBC6C1B3F9DFA453E96DACDBE3C
:1007500090009E3D7226663F8C83A2BECBB87F3E42
:100760001F3EEC3E07A6A6BD0E75FA3E3D3C173F68
:10077000855B08C064A9843F3ACA823F4139BE3FC5
:10078000EB2278BD8AA877BEB50514BE0C3F2F3F7B
:1007900061B406BC48E2893EEEC31A3DBA34913ECC
:1007A000F01300BE5F8978BE25ED63BFB7114BBC67
:1007B0009677153D51E2BB3D4898203FDFA406BD2A
:1007C000E6FF243FC56C963D2ECFF2BD12F1D0BDA1
:1007D000FAF207BE1D8775BF342E1CBF0FA736C0A7
:1007E000CBC108BE84E15C3E4A1356BFD7AE9EBF64
:1007F000CDCD4E3D54688EBEB47D9DBF537773C042
:10080000F7AD393D010381BDA49733BE6C6889BE45
:1008100085FE10BF4E65783E2CBC24C083D73EBFFA
:100820000B51D7BE41A0EA3F938FC93E3D064A3ED9
:100830007BAB9E3D77B7F23CF6149A3F19D89BBF2D
:10084000FD37BE3BB08B1E3E40A188BECE76ABBC12
:10085000FE60DABE47540CBE39C6E0BFA8AE00BE8B
:100860004F3134BEEF26EEBE6F1FEA3ADE7A223DEC
:1008700059AA1F3EDD68A5BD71E8923E40510B3E6E
:10088000D62A38BFA6E8A3BE6A47AA3CF85727BFB6
:100890000369F8BE25A63F3F6ED510BF74DA97C036
:1008A000A312E93EE1A21EBE337A81BD47E43C3E7D
:1008B0003128583F1A5A523EDDDE863ECF95D83F4A
:1008C0006784CD3ECAFFE53E9EDD8E3DE5A1D5BDE8
:1008D000FADDE93CAA36BC3D76B7913E4B757F3ECA
:1008E000CD5EC73E3683193FBEA3923C69D1F53E2B
:1008F0006409A8BCD557B33E143D323D157655BDAD
:100900003BC9B83D9CEA123F5F82EABD7DF879BEE3
:1009100000734CBE8533C2BE6403893E426678C014
:100920002EE409BE7628E23E2E3DF5BE8F7E133FB3
:100930009E346CBE67B3943C9302303E3075513F99
:100940004991373E0A401F3F4E2FB8BE4334BB3D4E
:1009500086901F3FA3D282BE453284BEA942A83EE4
:10096000C5F10D3F9FA955C01E2940BBF12B99BF72
:100970007B1C29BEE2BCA9BEB34FF63D3699BC3EF6
:1009800062B643BF4D0F7C3CB9DF983FF2F79CBE87
:10099000CDFC3BBF03629E3E7DDD6EBDFA173E3E41
:1009A000B5C048BD610D593EE9BD34BED53F3FBD20
:1009B0001343983D02E8B2BDAF86A53E80F6BA3D2E
:1009C00077F6A4BE9A300D3E43D7AB3EEC8E85BB86
:1009D000A5C80CBEBA9D863CFC45CD3F8FCA5DBE06
:1009E00059C116BDC7BFF5BE76D2043FD76BCD3F08
:1009F0007242C4BD1424A6BEAE6BAFBE3472674053
:100A00001988B9BE9909673FB529D1BEF42A7EBFBE
:100A1000D01EF4BC21313A3ED11A87BF118B1B3E48
:100A20001548A4BEE37CB63BE8F3BDBE81739B3F93
:100A30001799B6BFBA61E8BCFE46B83D36A30DBFF4
:100A4000DCAAD73EDA2A1F3F8567E4BC92C2C13BCD
:100A5000CCE9A0BED4FE88BE11434D3DA81106BE10
:100A6000F0F4AE3DCB1E66BD064A1FBFE83136BF6F
:100A7000A145943EBA36383EC9E41F3FA64BDCBEC2
:100A800011C112BFC6F409BFCAE47FBD2DB0DB3E61
:100A9000CC0FDABEC4FCDDBFB06958BF1E3298BEB1
:100AA0002AB1FC3E1252CFBE8CBC93BD94F0823E64
:100AB000C268623FF8D5C3BE2EF1E13EFD8A1E3FFB
:100AC000241B0B3E28DA4ABFDACA343E6B839A3DB8
:100AD00075D7CABEE5F0BB3E2F8344BED4A3083F02
:100AE000BC482B3DAC9A3B3F857AD6BEC1E1173E50
:100AF000DFC0143EE49B093FCD8AB2BDF10F803FB9
:100B0000A2DE0D3D2DD4893EDB0748BFF3C75DBE95
:100B1000D5ECC2BFC21589BE645F513E232DD3BE42
:100B20006FABE8BED524EFBEEF340BBF0FC8393F23
:100B30009DB5FF3E12AF36BC0D57A03F56B88F3D56
:100B40007B8727BE769DC13E1B84553ED5FF593D10
:100B5000D2FDF53D8A361CBF3C23983E09E956BDBF
:100B600077E3CB3E338C6EC0C2D01F3EA987C93C11
:100B7000644E6E3DE8A8853F4B44FB3D702C923D92
:100B80009F990ABFCFB1613DC03AA7BF4C6ACE3E24
:100B90000197973DB1B9283D5622793DEAE1A33C42
:100BA0008D3276BF7FF197BD71173D3EE5C5813F20
:100BB000383A82BEE85FF1BC6B1130BD35B93EBE3C
:100BC0009C1055BD04E2D53E9A873BBDBDD3553D33
:100BD000A131F4BD1A56B23DB6655D3DAD28473E24
:100BE00073E7D9BE1845DB3EC4D04CBEB6AC20403E
:100BF0007BA5B2BA19C5033ECD3521BF94E90F3F9D
:100C000016C2893E047E933EEEE7C740767BDEBE89
:100C1000F6243E3E54D21EBE493608BD4CFFBEBF30
:100C200082DF483EE67620BF7A957FBF0D16FB3CFB
:100C3000E494E1BEC4E2E43D5B9839BEB8BB893EB2
:100C4000FA0C333C472CC4BE3D1189BE2499163E94
:100C500010E68D3FA96A9CBE01118D3E02EA34BEAA
:100C6000C090333CBBCA163E56F94EBE683402BF34
:100C70005D3300BFFA4A0D3EB26FCBBE3F6BF13F12
:100C80009B8B9ABE2D901FBEAE9E84BE4B7E71BFC5
:100C90000CC6E3BED7FF28BFF1E65FBD88256F3CD9
:100CA000758144BE0496903E2C87EC3DD4E3023B14
:100CB000F926E53DD25A853F602BAC3E9FB3A23B5F
:100CC000B1DD963EF1063140EC97843E3D8E383ED4
:100CD00090FF8ABE837ACF3DE8FD173D848A9A3C17
:100CE0006E260BBF2EE62CBFD5AD6FBEC8D665BF36
:100CF0005F368DBE88B5F5BD6C72C13E8508B8BF44
:100D0000C5F1F8BC36A19B3C8A3C0F3E123690BE22
:100D1000A423B1C0B5AE66BF3BA3043FA43943BE14
:100D2000EA2983BE877D5A3B9E6137BF4A79943E4C
:100D3000A0ACC63EB28493BC535CBB3EF4571C3D92
:100D40007875D6BB6CFA4A3EB042D83DDD43C3BE8F
:100D5000F1F7A73C1EE0F7BE4A26803DD63F313E64
:100D60005BBE99BE43AE0FBFCF1C6ABD06FF293ED6
:100D70003E07C63F920C303EB63942BFA3012F3C1E
:100D800092C8743EBFF69ABE186BF83DF86DFCBE73
:100D9000579B54BCEB920DC04BC8AA3ECFCB2BBD8A
:100DA00090DCACBB11E9BA3DF2223B3E01A2C9BCCA
:100DB000044A2A3FC78D8A3E18308FBEFB8CED3F18
:100DC000AF03743DBC54743EE7744CBDA9182EBEED
:100DD000CEDD353FCAF82E3F9DBBB13ED8E6F53C8F
:100DE000389FBC3D4B38A3BE4FF30E3D8D5A59BEC4
:100DF00095F77EBC47657D3F310560BE401EBE3D18
:100E0000AAD85B3E1F71D3BF7F9C803FCF2FCCBE43
:100E1000CD40E93D830D4EBEF8D6BE3D1EAC03BFAE
:100E2000353F9F3BA1EE9ABF8D11173FDD47913EA5
:100E3000C2932A3F23DE96BE29BD15BED168F23C7F
:100E400027A0A53EA1DA8DBC57CBA2BE6F7FD8BD2F
:100E5000931C59BDFBFC0A3EC1D5E5BDEC07853EA0
:100E6000611A06BEEEAAF33E9867ACBE8284A23D2C
:100E700040508A3EC234A13EC7F080BEBBBE5ABCC1
:100E8000E9895EBD0DDC6E3FC2644DBE0730EE3DAC
:100E900076BC143D7F42E1BC6888DCBEC4E6503DB0
:100EA00028BAEA3E45DF15BEA10A32BF1E12FEBDBA
:100EB0006A0F06BD86EBD73E5B77563F5AFA413E36
:100EC000926E393FE7C25ABE001C613E8EA496BDA9
:100ED000376249BE6A73F83D23EDA23E259732BEC4
:100EE00054AD153FFEDF14BE785124BFAD28ED3E52
:100EF000379C5CBEAC2A653D44707FBFB794763D9D
:100F0000A3F9344078400DBD8A7FDBBE78EF65BE23
:100F1000D193663FA6AE33BDC80F4CBE8DA043BC77
:100F2000CEC817BF99B96CC0BDE316BDDDB7243F6D
:100F30008733FA3F4040CA3E61D894BF569020BBE9
:100F4000918E68BEA04802BF0A6ED8BFCA3405BEE3
:100F50003547DC3E74808F3C788B843F71EA83BDDB
:100F60007BA7023EF71706BF191EB6BD1563DD3B12
:100F70000F11B43E119685BD5051E1BD62D04CBFFA
:100F8000BF19583EA2C2FABEF45106BD8FEADD3E3B
:100F9000DE0F173DEFD187BE2095013D837A0C3ED1
:100FA0005D64B03ED7ED6DBDB4A1B63D7B03BB3EE5
:100FB0003C5EE33EFDD02D3E6193FABDC2D196BEAC
:100FC000DF1A6E3F188CC9BD0EF188BD31289CBC5C
:100FD000556CE83E2BBC9FBD029D403ED3CEE6BD86
:100FE000E234A53EAE470E3EA4D98E3D17D776BF5C
:100FF000D4BFB63EA3A47D40E89F74BF12CB453E4C
:10100000FD9A1A3D14B0B03E1A3172BE4AED5D3DF4
:10101000B9077F3D1A65D03C044830BD26C78CBF58
:101020003B2DB2BE41BE3A3F725F23BF4894F3BE30
:1010300086CFD1BC72FD043E7B25283F9908A93E8E
:10104000D514A23EEA85473E27EB033E89BE5BBD31
:10105000D5A5EFBE9293983E7E32CBBD688C1CBF67
:10106000A04E55BED9EE20BEA09F063E99FA3C3E4A
:1010700076099C3E59803A3F53120E3DCF9B283E45
:101080006718093E08947C3E166ADCBDF7323A3E8A
:10109000780FC9BD03050C3D43DC17BFB579933DFF
:1010A000E0E973BE88E22DBFA3A2CCBD8688953E41
:1010B000C46450BFF506C13DD176E6BB0B408E3E01
:1010C000FD0A173E5360733E8B8B953DC3995EC0FE
:1010D00032B3AB3D55E992BF6A3E063EE0420C3F5B
:1010E000359CA5BEA38439BD16C2ABBD99EA5BC0D1
:1010F000880924BE0669BEBEE79FF4BD6B3E3B3E39
:10110000D0DF9A3D4CDC5EBE4FFB34BE5A9B893C1F
:10111000A103023FFED7C9BE5DE541BE9B0B89BE60
:1011200023AFA33EB05610BD2AC951BFAA42CD3E3F
:101130004296AA3D46CFD93D104FE3BEF5BC3EBA1C
:101140001B60B53D0318063F2184D93F5E1E1F3F3B
:1011500097712BBE754A42BD990712BD349D20BEC2
:10116000E131BA3E9280F53E9DC5FEBEDE148B3E57
:101170002A9FC1BEAD5DC23E381C08BE3C300CBFCC
:10118000466EBFBC27813EBF21D42D3D589080BD07
:101190002B2FB63F291FA1BD3A04453D7E98433E03
:1011A000897687BE417BFDBDCAD423BFBC7F46BEC6
:1011B000CA682E3DCC27A73EAA445DBD42ED79BE4C
:1011C0002E4724BF4ECB5EBD899176BE303986BF97
:1011D0004297D7BEB97B85BE3BA2C4BF0B5C703FB4
:1011E0003C05A43E036D90BEFE1B81BE09607B3DA5
:1011F0006C48C93D1CB7EABD7A75223E01BAF93D7B
:101200008007C1BC52A18C3EA289723F475B0F3E52
:10121000566E83BCE6B860BECFEB38BF623A1D3E67
:10122000B7A23B3F859B004079D70BBD3893B53FB4
:10123000A6C5153EDE58123F69A3AC3D03C8AD3EBE
:101240000DD11EBF1517A23E12BD02BD517BF2BDCE
:10125000D4A5AD3E00C25A3F85F2E7BCAFBEA33E67
:101260008EA9753F58EA283E9C75473C1402983F6A
:10127000D11FFFBEC92B243C6396253E1382D33C6D
:1012800050AF8FBEC28056BE7DA6ACBA31845A3EE6
:10129000F60CE2BE390583BE8BA7C6BE7E53C83F9F
:1012A000BF88DA3D1A7A82BECC6E1C40DAC446BED4
:1012B000D569BA3EDAAFAC3E6BFA443E83A4BFBEFA
:1012C000A2BA7ABDC340123E8F79E43E28E90B3DB5
:1012D000441C0CBE3AA5433B276159BECD72BFBD2D
:1012E0003FCCA2BD42EBCE3DF623723F0D272B3FF4
:1012F00061037E3F401A7BBED92686BEF7C3633D9D
:10130000B85BD93E62A69C3E8D12313FCC3193BE74
:10131000013E853D78AF863B2F75A4BE5D8A98BCA3
:101320008E2ED2BDADDFF83D0AC2AFBFB8DA85BFA1
:101330002EAF9FBEF0FEB13E52196DBC38529C3E9E
:1013400042382340AB94A13C93CC70BF51A180BFE5
:10135000E7D6A3BE62B3923D44B1983F7646883E3D
:10136000F9DE47BE56BF1DBF505E98BE6676273E6B
:101370007C14A2BF8388CC3E2C5FA73C81FB46BE79
:10138000569F06BF1E3802BD6E7A76BE609FBABDFC
:10139000479BAE3E6C1C3C3FDF96493E6D76DABD06
:1013A000FCA087BE159EC8BD2EFD663E69B7A93F4D
:1013B000F6ABB13CDFB351BE8F9A133F7C91A93B92
:1013C0006D610CBD32CBB13D71003F3CEE7403BF8B
:1013D000B023003D9FC0DDBD1DF897BEA3CCAFBEBE
:1013E0003228E7BDA86790BD0377803DFE62ADBDA2
:1013F000E2A47A3FE9E999BE0EBD76BDD068A73E6A
:1014000009F785BD1229B73D8C01CF3F17066EBE87
:101410005150973E2D11273F01C62BBE12CBE63E01
:10142000DDC8F63E70A3733C81E717BFF1BF8C3D6A
:10143000E685EE3E592DADBECBF7B6BD4AF7E93E87
:10144000EF39B6BF7DEF31BE44B9ACBE0D3AA0BE98
:10145000BFE0843E948326BEF14545BEAF5C8CBDA3
:10146000E41AA53F2E27253F048A303DD1D43CBE47
:10147000278F32BFCE522A3D218D15BD3501A23EA8
:10148000CD413BBE772C9B3EDC76283F1B8E983DA2
:10149000126E3CBF49D4F9BC3C2D963E2CC8074087
:1014A000022F32BDC55F00BED770433FE103923FBC
:1014B000DA3E03BE263ED7BE2CB5FA3EB8C4B6BD52
:1014C000BB32F23DEA870F4027676EBD9178A9BD18
:1014D0000C1A203E23EC133E24DA7A3E7C42153F60
:1014E00076B20CBF98FA81BF895B353F64F0113F3B
:1014F000222E2A3EAB3C393F1D9B5B3FB18117BD7D
:101500009D3672BCEC21363F8956ECBC05D6D3BC67
:10151000531A633DD5B4F93D262E383B3F4C96BE59
:101520009177083F9C3764BF511368BE6C03533FEB
:10153000FC1E64BEF6AD3D3EBF27723E812832BF21
:10154000811F143FE7A8B5BE0CD9813D133A8A3DEF
:101550004EED603D76E6D53D0C47193DF0FC5EBF93
:10156000AE596A3EADA27ABCE8B5103F9A1891BE5A
:1015700067D4F7BEA8BC93BD5C86F2BD6219E13D9D
:10158000A88E9A3EAF4B2F3CF885783F21FE0E3C4B
:1015900002865BBD5AE1863F239F30BE545495BE00
:1015A000518903BF266910BE39EC40BE132B05BD1F
:1015B0006D62B73DCF53A8BD7332A63DBBBF13BE0E
:1015C0005F24D93C3B7828BF2506303F41649EBF4D
:1015D000095E3FC0D70E623F6075903E42BFC23D7C
:1015E000B3F8E0BE6CE3EBBEF95E08BF0D0F663DDD
:1015F0009C1A03C0D633613D8AB09A3F50D7CFBE04
:101600009830B2BDFEB108BFB47CC33E07A34A3ECA
:10161000EAEB363EDA12CCBE9942013F8AA7623F1E
:101620009FD2073E8E78D6BD68EF9FBD5A2D5ABE19
:10163000D2A0D2BE65F261BED1ECE83D5A5E4FBC8D
:1016400050F2F03E4C1E843E79C4F5BEA90DB1BFE8
:10165000AD3596BE6DA4AABE6F3D3BBE1BE94C3DA9
:1016600051E9383F0D260B3DEFDD78BB19CECCBDDF
:10167000B9915BBE430EA3BC95EFC0BDDA05A9BD11
:10168000B4702C3FAC7F9EBD43CF27BF9C002C3D48
:10169000F50D873EF84E7C3E61AAF43D742C26BCC5
:1016A000F61564BD3AECD43E39591ABF0315CABECB
:1016B000697A393C923A38BD195387BE0DED30C076
:1016C000AB77733E4DCC743D3570E23EEC27353F31
:1016D0004EEDE13F5C80363F604F9E3E3075D0BDA1
:1016E0007DD88BBEEBF98FBF72A46ABE4746503FD0
:1016F0000F808ABEDF2468BE3CF5AB3E2E67E6BE97
:10170000D276DEBE6B4FBEBE6EFC36BF1D9C42BEA7
:101710007D0A7BBEDBEE0C3E4669E3BF7E0A41BE1E
:1017200046A4883EE1EAB43C7E440E3CD43549BF31
:10173000C9D6863F64D1883F994243BED554A6BFDF
:1017400086A47DBE22BEA13D4805103EE74DF3BDF7
:10175000C57C393EFBCE64BE3A3B843EAFA4203EFE
:1017600072FAC2BADF34E13EAB97DA3FD92E0DBF31
:10177000361D9F3EFEBD153F440E40BEDE094A3E6B
:101780003DF1E1BF0EE2813DA6CDE53D2080273E43
:10179000B03D80BE0C350EBE3C5A753DB6AA833DA9
:1017A000A0367A3D2195333EA84755BE98E6F8BD50
:1017B000A620AE3E06AB50BE550EA43D0E3B2ABD44
:1017C000BA05FE3DDADDFB3F8C68813D61A02E3E0F
:1017D00061DE4A3F725FD9BFEF8609BE4B5A45C0F2
:1017E000414B703F764CD5BFE0F29A3E4DFE273F0D
:1017F000D975A53EDB96CCBF5BF0933DDEB9BEBD8F
:1018000071BC8CBE5115643ED48A29BEEAA4ACBE1C
:101810009883E7BE6AEC823FD1831E3F9D7B82BFE7
:1018200040D55D3CC826F1BE77A8BABE5FC5EDBC09
:10183000B03505BE680BFABEB7AB15C03B8DFE3D9B
:101840007160BE3DB972BA3E86146D3F8D69333FFB
:10185000A29094BD53FAA43D359BB13D11C393BCF6
:101860004C49B4BE306250BEC767A9BE7FBB8E3E36
:10187000EDB91B3F5CF9173F16DF1D3DBE5ABA3F5D
:10188000E124E03EBE69C43DB61DC33FF36B6EBEAE
:101890003AFA253EFF72193E7A6C6ABF8D9975BE81
:1018A0001A5503BF3B765D3CF317FD3EBB96913E58
:1018B000F55F2B3F9C49ADBF9B1384BEEE5782BDA5
:1018C0005FF1CE3CD2A66EBDD0F82A3F8C555DBEEE
:1018D0007FBC003F59EC973EF5E276BE68850CBFB1
:1018E0004B4FCC3C7B6A9F3DE50B83BD73AE083FFD
:1018F000012D0F3E8523B93E2E56ED3E46533D3F0A
:101900006C929B3F2EDD53BC75CACBBC534D293E18
:101910000466173E461AB9BF6288A93E2B06B8BEB8
:101920000993A43E67E65BBE15CB783F9E7E1B3FC6
:1019300040759FBEA34986BE9F32353D4E1906BDF8
:101940008ED9673D62D5E03D955184BEF2BFF4BDAE
:101950005417C1BEC0F662BEA3AF053E6FBE0C3FBA
:10196000EA9A293F49F0823D915D923E8F6D583E43
:10197000977CDABDF4DD903D081A993E7C8B6C3E75
:101980009067BB3E70CE463F1EAA4F3D92CA14BF21
:10199000FE50083F9D4950BE6B0404BE419D743DFE
:1019A000055FC1BEEF29293E7C9B08BFE9F922BF34
:1019B0002102983B689FA6BDB2D100BE5EEB8ABDF6
:1019C000F1C8DC3B842FAD3EEC24513F7273D7BA93
:1019D00032F281BD30272CBF404A883FE4299F3E28
:1019E00061BA703E75B0A3BE9CB3F1BE0352283DF0
:1019F000A8A5B93F0591FF3EEDAE1FBE6F46873EDD
:101A000050C6764077BAA33E3F9587BD3878293FC8
:101A10006780E5BDAD1F1B3FFD05A7BDD6C12BBE31
:101A20000954ADBE73CC993D5F2E223DD760B53FC2
:101A3000D4CBC5BDD1B95CBE070418BEA0B549BCA6
:101A4000AE04963C6C37E2BD7DA091BF9CB9D4BE7C
:101A50008FE55EBE17BE853F65C6CEBE30D9123F4C
:101A60007837143E6A5C6CBF7221C4BD8448F0BEF6
:101A7000EFE6F3BE4C5A3EBE3C3482BEB25A783FCB
:101A8000E29B92BDAD3C0FBF6761BABEBD8E2BBF5E
:101A9000CCA2B73D57E2F03B3EE2FA3EF1E426BE6F
:101AA000DEC8363FE89108BF11EE8CBED354383DF6
:101AB000D332913E98994ABFF982A1BE2D762ABEB3
:101AC0009D7087BF7738A4BD7E9E93BEE982FEBE1F
:101AD0001041AB3E72F3143EF225DCBD5348E5BC29
:101AE000A489453FECF32BBEA78E66BF1A94A03E97
:101AF0008DF0263ECFBF0D3D0C99553E9353703E61
:101B0000FEE8963CA372C8BDCA23B03E11B0AEBF7A
:101B100040F307BECFB8993D96F5F73DDD622B3F08
:101B2000FA0937BE5B03D23F215C1441FDDEB3BD31
:101B30004B2A0EBFAC3C253F354B713FBF72653D14
:101B400081D9F53D15F7AABEEFB9C13ECA866FBF70
:101B50009A92953EFCF17E3C8D69323D5555B83EDA
:101B6000036F9D3ED258393F03C7B93FB0D7323ECD
:101B70009BC3623F9F16063FD93C1DBCC2EF61BEAE
:101B800095BCA0BFD75ECA3D9BEFEA3DB37BD6BFF5
:101B9000FBE3EF3E171CFFBD3B4DF3C0BB8238BFDC
:101BA0006F2669BEC42D84BD68D48E3EACF3CCBE16
:101BB00038BCF63E3FACCB3E9C0A3CBF6D8D5840D6
:101BC000BF848ABF3A8BCE3D781F383F3C0A0ABF9C
:101BD000DBB5A1BE56E4E9BE0735C2BD96FF983E0F
:101BE000AF6AF8BDA3B2823F7B57A43DE99CC13CDC
:101BF00031283DBFE06C403EE596003FE4DDA63C69
:101C000032CED2BF8D969ABF1A92F7BF9FD7F33EBE
:101C100058C706BFC6285EBFA04DDD3FB536193E8A
:101C2000EBE4083FCBAE0CBFCFD4BB3FE3AC10BF5F
:101C30001876AC3D2028DD3DAD92713F24B4DA3EEC
:101C40001507BBBDF6FDF43E2C01D43D9BCD16BF60
:101C50009616033F902222BE246C303F5796893E51
:101C6000C80BAA3D73D11BBECC6F1E3EAA5493BDB8
:101C700060820EBEF5B5D1BD43541B3EAFF68D3F1D
:101C80001ED1D8BD5068F3BD1E43103EE00D413C4F
:101C90005DD91F3FA1F6763E352DC13F9340963F5B
:101CA00067CED9BD8FF0BA3EE5C687BE0FD4893F57
:101CB0004A54213DBED426C01657813C858B513EE7
:101CC000248178BEDF5D613D1FFB0EBFA8A02DBF44
:101CD000844601BE79D0BD3C14B7023D2BA2D6BECE
:101CE0002A15EA3D43CFABBEBEAE9C3DB68EA5BC29
:101CF000E786953ED7A1483D20EE72BE5BE703BF65
:101D000064C5263EBF480D3F22A210BFF4C6233C47
:101D1000603E673DD6E7D8BE4905E2BEC600763FC5
:101D2000FFB48EBEC66786BB695F25BF2EC8C2BE24
:101D300074A4673E474C413F5D4E0BBFD1F5D63E84
:101D4000DF9AE63C3389C2BF34BFB63FB0CB273EF3
:101D5000ECEC16BE759F76BEC99090BD14F9D6BA4C
:101D6000115F0F3EF9BF703E1E33E7BECFBB983EFA
:101D7000F333DEBA582583BD201A963E71DF4E3EFE
:101D8000898E0EBEA8185CBFE1D2103E2EF35D3ED8
:101D9000E2E3733E55CC3C3E3EDB7D3C240EF73DFA
:101DA000387B283E2A37CB3F12FCB9BE207D15BEBA
:101DB00058D194BD65C638BFA43287BE83CD15BF48
:101DC0000CBF8EBE8976063DC7C36BBEAEC8373E1C
:101DD00038F78A3FDBD34CBEC129B13C736C3A3F24
:101DE0009BD20C3E83550E3E5BF2393F2C8CE9BEF4
:101DF000C0B98CBD4A94193F4300A4BE4DF19ABEB0
:101E0000F483AD3EB80C03C1CC81B5BE3E81803CAD
:101E1000173BABBD6C08273EF47899BEE7B20C3E89
:101E20005E5B843DBCF16C3EA31AD33C3848213D37
:101E300086096B3E4D8706BEE356013E97703ABF5A
:101E40007FC129BDF2C871BE8352E93F85E951BF08
:101E5000DE9E6ABF43BC11BEAAB9943EB552023E93
:101E60005141233E80DFBA3E39B0353E5885C53EEC
:101E7000F020D9BC863CA3BE9E0392BF2B578CBEDC
:101E80002806B0BCC92B8C3EEF578D3EA32ECDBD8E
:101E900033C881BF1F3969BE5F7C513EF9D3D9BEBB
:101EA000CD6469BC44D75A3D68C5A03C4764983EA0
:101EB0008DF93C3E13A9FEBED1FC1EBE20B701BE6B
:101EC000944A1B3E8E190BBD929EB83E8F2F87BD44
:101ED00057020EBE5692E6BE17FCE63F08FD3A3E9C
:101EE000E4D5953FBF69953E6E8E8F3E7D741E3F53
:101EF000A9D672BD48D50E3DE02E30BE33E994BE62
:101F0000DA54253F7DA0A0BD39A282BD28915CBED8
:101F100049A3A0403B0DB23D7F719B3E4AEC4FBFB1
:101F2000A4EDA63FCDDCCCBD7434AA3DCCCD42BFE0
:101F30007AF4013D754DD9BE1D7E2E3E8FED3EBF1C
:101F400018C4173E6BF512BF227513BF3C68E63C00
:101F500064F75CBFFB36A3BEBBA1573EE9F3313F3C
:101F6000D41BD0BE77BEBB3ED011DA3D0904343E4F
:101F70004764363E1A18FBBDB425713E18FDC4BD3A
:101F8000FF61673E8BF150BDF5910A3F9978FBBB2D
:101F9000ACD34C3E4A78873E26BFB3BC56BD893D84
:101FA000D3E0A0BED0C00ABEDE25053D903D13BFE4
:101FB000755BB8BEE6663F3FACE804C0668EB1BD57
:101FC0003DB6413E020C6BBE7390603E01A37CBFE8
:101FD000D13BA9BFAC0725BFC85F043C243C943E5D
:101FE00036F6683EA3A42F3F60C10D3EA31ABB3E48
:101FF000A8FEB0BD8AC8ACBE9B86C03E8596E2BE38
:1020000014CA263F1ECA4C3E468E6B3E489C3BBEC1
:10201000CE18483E8AD610BFEFD3C33E6FAEBEBDCA
:10202000B5519BBE5D5AC13DF08E993E842054BD92
:1020300075391B3BE820DB3D824792BF1B920FBEE8
:10204000E17198BCA3BD64BE8AC5F8BE5413D0BE6E
:102050009A3DA5BE394928BF669D3CBF1116AE3DCD
:102060009764FA3D3DCF083FD167E1BD4D7F40BF4A
:102070002B2AAE3D65370DBF383B54BF7840F33D4A
:1020800066A828BDFF620F3F4956663F72F856BEEC
:102090002B2A543EEFDE603ED05DFB3D6B7BC1BE24
:1020A000789F06BFC2E71D3F888DBE3EBEFC8EBE38
:1020B000E92F1BBEE3CF1CBEAEE5533F352F40BD1D
:1020C0009FC622BE616EBEBE92CF153E9933CF3EF3
:1020D0005AD799BC22D7813D73218EBDAB6D263D69
:1020E000CF36273F73DB01BE736ED33EEB7331BF38
:1020F000E71539BCA2EB1AC0548CC2BE51E073BFC5
:10210000E1B4D03E3675343FAADC03BF3FEAA3BF3B
:102110009509C73FFFD2723ED741D9BE44BB0CBE22
:1021200019EECC3E2950E83B89EB45BFB5C8883D48
:10213000E4FA963D7F1B86BE051BBE3E9AF888BD1D
:102140003C7301BE7225003E4397313D0683D7BEE6
:1021500067E800BE4871413EA0E45CBDA4F255BDF5
:102160000EDBD03E5B95E4BE77090EBFAFCD0B3FD3
:102170006D1480C0440E14BE7D059F3BA13F103FEF
:102180009E901EBC21EEF63C33E3FB3D9A09033FD3
:102190006C00233F1EC2353EFF7CBCBEF5C6103E20
:1021A000F462463ECF23CD3EADA46F3DE3D64ABE9A
:1021B000101B8D3E0766853DF48796BF2593E5BCD1
:1021C0000988BEBCD8E9283EFD14B43BCEDFAC3E46
:1021D000AD0EA03F5161F13F5B9BF4BEC71B85BEB6
:1021E0001C8669BE18409A3ED76DB9BC8C362BBF91
:1021F000846DB0BDFF1958BC709A3ABFA1FB0BBEED
:10220000FA5C863E390D09BE52D9A0BE667E5CBB23
:1022100085CEE1BF7810893F5395AF3C05C96A3E32
:10222000CA85A0BD74CB00BEA1979F3DB6B50C3C3E
:10223000F767283E7A5BD63D02BF553E681B9B3E42
:10224000434DC9BD72D4993D629B98BE78CFAE3DD7
:102250001FDC523E2657BA3EC0904B3DF495833F5B
:102260003E781F3F22CF013F622A4F3F5BE56C3F24
:10227000F64BFC3E09B4B5BFA81DD43E5E39A6BDE1
:1022800079A1E8BDEA488EBEF4A5D13E90D4B73E10
:10229000A8811CBFE015803A80B7B4BE199D74BEFA
:1022A000832EC23E412CAABE45172EBDA6254F3F08
:1022B000B2DD2EBE2315AC3E02C609BF7D7D993F1F
:1022C00042C48BBE2DFB993EEFD5713E4B16EB3EC3
:1022D0002DAF913E46B5AABD363293BF02AE67BF61
:1022E000B78DF7BDC2ED81BD3415003DDF7A35BF36
:1022F00008E3DCBEB4910CBFD7930FBFF07780BD6D
:102300003C2EDDBD67AD033D5B46B2BEC0D94EBDC0
:1023100052A634BE664C073FA4E1803E257298BEAB
:10232000F53C95BDAA2B07BEEE5C703E51DA263E09
:102330004A8A8F3E066C1F3F52CA463EB78909BD86
:10234000D17D55BE7B03573DD4384ABEDC1D9ABEB5
:10235000DAE9EFBDF142EC3E7BBA203F99D7133D5D
:102360000F2990BEF9F8CDBE1E8B07BEFEA9AABEEE
:102370004D3B213F8930293FDE2C11C0F93777BD15
:10238000DB967B3EAE2198BE5592AD3DF477E03DA5
:102390004A0A673FD0E36E3EED1785BDFBA8043EB9
:1023A000F5D53F3E595D88BCEF30BCBE7AFE2C3E71
:1023B00043D58F3F2E653E3F59D9263FB95DF03E4C
:1023C0006E83173E4696B7BE4E562F3EEC8B83BEAD
:1023D000F00A663EACD13B40856DF6BD1FFF0A3F5B
:1023E00003ADE23D68B25E3E2D9B6E3ED857913FF5
:1023F00014CB24BE0AE08A3DB34571BD45BB45BF41
:10240000307500BF24B1A7BE44C5E23D92EC3EBC8E
:1024100061D6873EAB98273F81A0FC3E8EBB1E3F16
:10242000A16AB93C28E4E3BE4B15F2BE6520713CBD
:102430000A88393FE21E03BEF522103F69F6923E3C
:1024400019D5543FC913093EC642883E5FF79BBD6C
:102450001D9525BE946E1DBE490D0D3E17F8133F08
:102460002777B53EA9372CBFD4AE183CF84574BCCD
:10247000A642D43E32274A3C3A0E383E15195F3EFA
:102480003B81053F091FA9BE3F268B3E81DE793D7A
:10249000AEE97ABF96B780BDCCCEF23FE043AD3E09
:1024A000AA83FABE47B20DBF687F1F3FB2EEF63E69
:1024B0007B460BBF9B9B7CBC2BDE42BF93D26F3E07
:1024C0003272A9BEB6EBB6BFB1A324BD3E9DB83EE5
:1024D000D0B1AD3EF380FABE64C0B43E16F98CBDF7
:1024E000EFF6D73EC2AA663E1F20883ECB9EA8BE0E
:1024F000C5A9A03E97C7703E894E923E711B1CBE77
:102500003CA4E0BE7A486F3D28989EBE7885433F44
:10251000F868183F548F42BE0AA9DBBDF247B43FAA
:102520003708C93DE1B1C3BD32F59DBED78235BE86
:1025300084A68B3C79D9A5BDB659DD3D845182BEB8
:1025400000DBDDBE4AFB38BD77C7FD3C3085D93E98
:102550002B3280BDE48256BEAE35A8BD3CAABCBDC0
:1025600031A932BFE0D2CA3DCEBD16BF0B608E3E50
:10257000281E563EBA60593EC300F93C8EE768BD3E
:102580006781D6BE6250D1BE4FA2223EBD7B05BF41
:102590003DEDC13DFBBF60BE12403C3FD5AB9EBF91
:1025A0002A348D3F4D255ABEE540DA3EC5847D3E36
:1025B000837F86BE0C3490BE28DD8EBE730DA3BE15
:1025C00087B2D3BEA63845BF452AA93E2FF3D6BD54
:1025D00020045CBEED08D23D41C7A03E751BDEBEA7
:1025E000D1AFFBBD8E169A3D7065913E2FEADB3E62
:1025F00083ABAEBCB1D61240792F273EF53C85BDEA
:10260000C0508F3E126C633FF590A03F1E6184BEA8
:10261000BC0CCD3E9EF8CEBDADC8933E082D113EFC
:102620002FB008BE7F1B4CBED6457D3E05FCFC3D51
:10263000CB0A433DE9AAEEBDFFD09DBE52E7BF3EA7
:1026400095DB073E65E6BFBE35C19ABE0D32C6BDFD
:10265000BF92843DB01801BFFF7ABC3ED37275BEF5
:10266000D5A572BFE0AA853EC3CBCF3E20EAA03FEE
:1026700070027FBD4A3705BFCEC4A43E9E5BCD3EEF
:1026800004BF903F0A77F8BD63118F3C85CA8D3C2B
:1026900017B3AFBD83DB7C3E341BB63D0ED02DBFE0
:1026A0001F9430BF84782FBFADF4DA3F846C17BE1F
:1026B0006A37B2BD6C84453F9079AEBF3BF65ABED7
:1026C000ECBBFBBF664FB53EBB6584BC5D7F2EBCDB
:1026D000ED731DBF74E49EBE0BAC713E7624D43EF8
:1026E0006596613E52F6863E53C959BDA3B833BFC5
:1026F00021221B3F42443BBF95313E3E11BC5C3E14
:10270000D5D6233F42F8A3BE9DCF24BE453C353EDF
:102710006FB2C0BEF5028D3D684AC53D8D02C43D15
:10272000693282BED66288BC9792FA3E433299BC27
:10273000C21ECEBC90D8143FED8BBC3F7D68993F44
:102740009759473F7E7A1ABFB94CAA3A5E04A3BD97
:102750003F4E293E516C783D803A0CBF18494FBF1F
:10276000C422CABDB250623E4FCEC2BD2356D7BEB0
:1027700084A15F3E9B2E193EBA14D63D19633FBE1D
:10278000900C173F24E5E3BD9ED9F2BE278FD43DC0
:102790009026053F6B61F1BED745D43EB5C88E3D4E
:1027A0006C55453DF29F6B3E719B05BFB36EF1BD0D
:1027B00055B4AEBF30D0B83E3ECB94BC1116453BAD
:1027C00083D8D53DF075BB3E4616953C4776CC3E4A
:1027D000B12D623E5F778D3D671927BEBA8E463EAA
:1027E000E29836BE77EE8D3F2A54703F3E51A6BE2A
:1027F00008AE513D930C93BD85A16D40B11D8D3F39
:1028000088F1D43DD3F7AABE88F385BDE4361ABE5D
:10281000CE828ABE14B4DE3E9D294CBD37B10B3D3D
:10282000B2C5073E9CB5E9BD4F43343F515F7F3F82
:102830000AF446BEEF4C0C3FFD28EABE2807293EAD
:10284000621BA13E7ED935BDE1C08BBF9335623D91
:102850003A8B0B3FCE860C3F268D433DD43AE8BDE4
:10286000B069E8BE1E1649BF836B1EBC52B3363D2D
:1028700044705E3EE0D6A5BB39576DBDE40D383FD0
:1028800067749E3DA2A8E03E241502BEE28F7D3F04
:1028900051B355BF822900BF4D829EBE28CA2A402F
:1028A000C65C0A3FFCAB7F3D16F2993D66E8373EB9
:1028B000A9E8BA3D26ABA73EC06026BEEEC57A3D6C
:1028C0001D44EF3EBD07EEBCED253A3F0F69633E68
:1028D000F6DA6CBF8709C5BF2EF6D3BDB60F9ABE18
:1028E000D749063FF396073C3A174540EE5847BD97
:1028F00019E2F2BC1FF415BF435038BDE470DF3E4F
:10290000794D033D2C01D1BDE51D22BE2505AFBE8D
:102910006ABC84BF39A6EBBED7D8D63FFB475C392B
:102920007A0F7B3DDC42C23C78454EBEAF5E343E02
:102930008E4724BFE0641FBEBB4562BDA33D1EBEE3
:10294000EE2C8EBD4716ABBE28F26ABF8740CBBEC9
:1029500041976DBD04AA16BFC5D3493EF4E2D9BD67
:102960002FC807BF7E6CF8BFBC337EBE212874BD64
:1029700061AC4FBE0076F43BB70001BF02C3D7BEC7
:102980005C2640BFF91492BD98E227C0DB6F05C0FA
:10299000BFC7333DB3C9F1BE8662573EB9B9E6BE83
:1029A00052E3C8BE609B933C3A0DF93E0D2E93BE98
:1029B000CFE5773FB9D0FBBDAFB7DABD15A2C93CB3
:1029C0006ECF04BFDAFC3ABDF3F33B3ECE495E3E28
:1029D000FB2640BD688D733C691D95BE5AFC74BFD3
:1029E00041F0F6BD5A234F3E26348ABEFEAED13D9D
:1029F000679EA63E3769993E85ED89BE9D5938BED2
:102A00007C2CC9BECBF6C13D4DC8CD3D60D30B3E3D
:102A100028B9FE3DA6DCF1BE21BC19BFFACE2DBE01
:102A20006C61573E8ED4D9BDA6CF253EB7C5073EB3
:102A300040DB71BED599263F532D6DBE9502BD3D3D
:102A4000571339BEBF8A553E6412F9BCF9D6AD3D65
:102A5000547D1B3B8EB12B408A100D3E2C13D8BEEB
:102A60004DA2F8BD7934BEBD2F686ABF1A59CDBDDD
:102A7000B23905BE46A3913DD3E0B6BCC997A73D88
:102A80002C4DA73E5BAC3ABDDE2D783CEB27063FD4
:102A9000AF76193D78A1BC3E7561683E9271353EB6
:102AA00048F23E407FCA23BF7F069B3DD5CB303FD7
:102AB0000327973D07AF7CBCBA24C13F270DA2BDB9
:102AC000F612E4BDA989B93F78033ABF0CACF53ED4
:102AD0006F92AEBEBF2043BEBF88033FED6BA93EE1
:102AE000DABDC4BDCDEC09BF29F30F3ECDD87FBE02
:102AF00046476A3DDF45B83E77E6503EBE6C1C3E19
:102B0000EF05163F57420B40CA3C20BF6A03AD3D5C
:102B100088229E3F1467A13E402C7FBDA2EA22BDC1
:102B20005ACB3F3CEBDB7A3EB6819B3E2C8D143F6B
:102B30002A09453E3FDFD3BF2D440A3F3D1FE63EF5
:102B4000C97C58BEE12DF8BC98D6F4BDAC23153E27
:102B5000D5BA163F68A035BF9BD2833E531499BDAA
:102B600027C10A3C8C9C4DBEA8BC213E6767613FD3
:102B70000983E03E200A20BA0D2F3ABFC62515BEB4
:102B80007A2B0B3FA594D3BB81D7873E3748843E31
:102B9000F54BC93E872A283EC313CDBD483ADABE5D
:102BA000809C78BE5541CFBD8846BABD572CFFBE2C
:102BB0001AF55D3EFEB9E13C5D509B3FCE4A6BBECF
:102BC00062AC84BE0C9B443EA7F8D9BD1035BA3D1B
:102BD0005850923FD117A7BE6BA47A3D92F9453E5B
:102BE00066DFCDBE21C0EA3E2A3CE63DA43AA13EC6
:102BF0002E0DE03C7E82F23D5F29C83EE3CABF3E17
:102C0000F82EC53F4235143FCDB433BD9883A73C61
:102C1000077360BFF0AB19BE944142BDA22056BEFF
:102C20002A20683F0D9424BE62C3753F03730C4095
:102C30009E9997BE3D2C893E5F27A8BED6A04BBD6E
:102C40007CD3543FF05419BEB5CA4F3E52D8FE3D16
:102C500060666EBF6EFEBEBD05F06C3C39542E3F03
:102C6000D432263F7FC5843ED231BBBD8D321CBEDF
:102C70006739F63D788BF93DAD3D4E3EE7AC9F3E62
:102C800023D4B93E12E6F9BE7D4B853ECF7C2B3E68
:102C9000B7B3ADBD25DC12BEE01B903FCE165BBFC7
:102CA000E7A1F9BEB24E86BC0046A53D187793BE9B
:102CB000CBA9C8BD3E1B2FBF2536463F1CE96E3E43
:102CC0007041FCBE1BB3413C399A833D904B90BE92
:102CD000CA702B3BF88A4D3ECE1962BEA857DDBDA7
:102CE000C3CCC93E2EEBC0BD0B7C1BBE9E9411BF56
:102CF000F2F1963EABB2C3BF0DC4D0BEDB102BBE0B
:102D00006A4D153D548621C0DF21CE3D3274093E07
:102D100060FAEFBD90EE0A3FFD1BB23CE932CE3EB9
:102D2000D0BB573F310F053EAB3C05BD5BB091BFFB
:102D30008901C0BE0CA23B3E14A3B7BDD14E013FDA
:102D4000A9AB953E4B290A3FAFB6DCBD7AA6373F0B
:102D50006360DA3D7DA62D3D1EEAA4BE46C789BF4D
:102D6000CD86B13DF224F4BF02C46BBCFB6786BDC7
:102D7000259B353EB16037BEC51B98BEC300CFBE94
:102D8000EC3E9D3DADC76C3EC02BCCBF074BE0BDBC
:102D9000FBBAA6BD400E873F06888CBF0E0A49BF0E
:102DA00039A142BF3813B03D7C62B8BE695A853D37
:102DB000190FECBE52030E3E8F07093FB875133E44
:102DC000E77A19BE5BF3B3BB7258843E4F27D33DFD
:102DD00057ABE83E6C6E00BF9F3266BFDFFC5F3CC6
:102DE000677B67BFC1C41DBF568499BE4CF4F7BD55
:102DF0006E808A3D3086BCBE66D5283E7E0A4E3D3A
:102E0000547766BE9329583ED9FE83BE16F600BE9F
:102E100097D31DBE2330E7BE4DF387BDD7C31BBE7E
:102E2000B5EDAB3D5D93E1BCB4C54F3EE548223DF9
:102E3000E9E71C3E599ED53DC7CE9C3DF3FA7F3E47
:102E4000D699693F13C698BE7DBB85BEC0FBEFBE59
:102E5000636B01BDA655EEBEB8F12C3B12F7E83D01
:102E6000EF81293FC074FCBD7C1FD33CE309B13F17
:102E7000B8EC653D6E3F00BE92B39BBD5F22973DAF
:102E80005F8CDCBC7E7B343FD629DD406198103DF1
:102E90002424A73ED9D00ABF00A3F93BB156D73F9F
:102EA000E353A43ECB86823E93A6923E1BC95E3A74
:102EB000715C563FC33B71BFDAB9203D0F3C1DBF6B
:102EC0000090B23E9B0487BC6963143F095B96BEC9
:102ED0003798B3BEEFE6873EFCC84B40AF2527BF0F
:102EE00052C7F6BD48606CBCAE08BC3E7FB912BF8D
:102EF0007D6DD73F084A8E3B5B062B3F19A3893E69
:102F000040FBE5BF7E3CF73CEC63EEBE917F273D86
:102F1000D19B05BF7B5E55BDCDC06C3D4377DDBE0B
:102F2000A89C61BE378446BE61227D3E61BEE9BE7B
:102F3000D3D27B3ECBD593BFC595EF3E9A65A1BC5E
:102F400081FB37BEB2033CBF2FD523BFDB446FBE2E
:102F500037651BBE9F45E53E4E47A63C09AD1D3E6D
:102F600060DA543D0754B33EBE5DEC3F435314BD9D
:102F7000F2D3743EFED0E4BDA8F14DBE926873BD9D
:102F8000FF7881BD86CAD93DD5782A3E0E583D3F8F
:102F9000296BAB3EB69BB53F96CE8ABF937057BDAB
:102FA000AA15F33EE267EFBD5DB253BF09F5D03D10
:102FB000EF9FD7BE9C22AA3ED0846A3F72903EBF4C
:102FC00043FDD83DCA6465BE488843BD04BE92BD7A
:102FD0006D08F1BD84DBEB3E705221BF916A26BCC7
:102FE0000E1189BFB371993DEA48FA3C0EFEABBFA2
:102FF00062861E3E00EB9ABFD52530BFFC1803BF8A
:10300000E9B8B33EA0EDA1BE5A72953EBBC11DBD4D
:10301000A5F9EB3E4ED3103FD96AB83EB3CA2F3E56
:10302000D58004BF106C0FBF81CA863D67488CBE37
:103030005BB844BE2B60733DE748D5BD5B31E93DCD
:103040003E171CBEF324E2BE34C6D33D0611C3BFF7
:10305000C1E72540B989A33F3CFFA1BC0A4D233FEE
:103060009B6502BED1F2753F5C97BD3E613D393F25
:1030700031C911BF82CEE8BEBA0341BDADF17A3E7F
:10308000C76947BF401FCE3EF248BF3C16DF04BEB3
:10309000130F44BE449FF0BEC3873BBEDA8821BEF7
:1030A00059E8D7BC292F93BE863612C0CF871A3F66
:1030B0004B37C63E2665FDBE1AE175BDF3A5103F30
:1030C00035C1493E59A4ECBDA8DE8C3C8433D03ECA
:1030D000D8B38CBEAC752FBFF4D441BF3E47EFBD13
:1030E0009B4A983EE459463EB943C33E859AEE3D1D
:1030F0004791D5BEACE6BCBEFDCAF53E36258CBBBD
:1031000037128FBD89EAB3C08153D43E810D153F7C
:10311000D2E6D4BE9B1E643FB73040BF715FC6BECF
:103120009AF8FDBF14E4893D569FADBEF9EEA33F6A
:10313000F7184C3F886F46BE53E0D3BD720865BD9B
:10314000356EB3BE87B81B3F0F5ABF3CDA282ABE84
:10315000E3EF1D3ED02C5E3F9EFD953D61200FBEEE
:10316000621B22BDA17A813EC4616BBD428918BF3A
:10317000AAAC81BE276FA3BC0EBF87BD3E32F33F12
:10318000805B9C3E5AB3D03EFA2C46BE6CE6ADBE88
:1031900004A7803D6DD93ABD0C515EBF070E12BF2A
:1031A00046D070BEB63286BE9FF490BEB2C46CBC30
:1031B000C5D8B73F6C91253FE6E5953EAEB7E5BD76
:1031C000F8B6E0BE9D38D33EDA203A3E8EFB223F71
:1031D00091A609BF218600BF99AB2D3EFA94C33E4C
:1031E00037492C3E44E022BE52BD2D3ED4F96CBE80
:1031F000397D34BE9AF7F9BE4C9A81BF32447CBE09
:10320000971222BEC471BBBDABB7113E746992BCAC
:10321000177D61BD59B7CEBE240E3A3E49B785BE73
:10322000FB155B3D858FA2BD810880BF80F21DBD6F
:10323000A81BB2BE3469A4BDA36620C0B95990BF13
:10324000B5A1843E835ACD3EF718BD3D6AB2F5BDA7
:103250005D390D3E5A8AA73AD56105BD4DB9B53BDA
:103260005A77083EA2647040A1FFA7BF4413FC3DFB
:10327000800D2C3E3259BE3E7056943ED83B883E5F
:10328000F7B3353D44ADB03E70967F3DF4CE42BEBF
:103290005F09CC3EC64BB6BD6E64FC3EB0A57B3E1E
:1032A0006FCB603C4DEFF1BDEFBD72BF4ECFFDBDAA
:1032B000F9F38ABE166DF8BCFF78EBBDD87021BE5D
:1032C0001B305D3FBB5A353E372B663EB68F8B3E7B
:1032D000839DAA3D512D34BE54FA893E34E778BE11
:1032E00059F3A9BDB4C9FCBD32ABB33E8D3A303EF3
:1032F00088FA14BF9E08A0BF459E2ABF52E591BD23
:103300004FA677BD2742AD3E40D342BF1F2A86BE9F
:103310005375A5BE81FB80BE3CD45B3EA75EEC3EF0
:103320003602AFBD4F7A803E14BE95BE2D7F1D3F45
:10333000CBD18D3FD267E53DBBCE07BE8F735CBE60
:1033400061BCD23D771070BEAC4F78BD709C843D9F
:10335000509810BF6577E43D7870AA3E062C13BEE6
:103360004B4CBE3E74B21D3D4C31E13E9A3DD7BD43
:10337000B1F73CBF86532E3FE639513EF1104F3E28
:103380005F8CA9BEE9ED8FBDFF838E3F95E13FBD08
:10339000560B14BDEBF68E3E6E64E4BD1C98C4BFA4
:1033A000B7F0363D2381983E2A59A83C79EB83BC7F
:1033B0003920283CA3C1E43D553A21BFDB8A633E56
:1033C0009FADAE3C45457CBD0B4ABCBF3F9641BF5F
:1033D000CB0CF3BEFBFCFEBAFB96E13D5C24B5BD15
:1033E00028BEBDBD7F1F853D0E2920BF1BD153BE0A
:1033F000502B3E3EB11131BDA7E9D3BD7D3FF33C1B
:10340000761949BF0390693DACD08B3E70C9AF3E81
:1034100073D3123E03608DBD33537C3E9CE353BF98
:103420009407F13E37A7313E2A5E96BF17BE51BDC5
:10343000EB5AFB3D191790BDEAA760BF733DEFBB88
:10344000D079CF3FB2A5413F827E423DEB1C363E54
:103450009E4E283FD9F78F3F1313E0BD30FAFE3D53
:10346000D85FCABE63B997BD4707DB3E516CB9BC94
:10347000A58426BF1591DA3E4CC1FABE7E23093FD2
:103480002DE6A93EC6C0403EB765C0BEB7398E3DE9
:103490004ACBA83E87412F3C5AFBBEBD0BA8B83E85
:1034A00022874D3FF6A7433EEBDEDBBE249D32BBB9
:1034B000BFC1AC3ECBFB75BDD300453EB1769D3E52
:1034C000E6F6963F11D1AD3F157F4ABF5EB8193C75
:1034D000E485743FD22AE1BD6FD6A63D9DA9BDBE4D
:1034E000E6FD98BE0F9E0D3EB8B6DA3D417EAFBDFB
:1034F0006D0B993F84718BBE2425FC3DE2887A3E9A
:10350000045A303E4049E83DB1AE0C3FB92501BEFA
:10351000D956BF3EC082063E04CB863D1BCA913DB4
:103520003D93243FE6848C3F37B5533B87F1293EDA
:10353000579B61BEAD900C3E8543073F6476BB3B15
:10354000B69FB23C59E2EC3DEDED7FBD0A302C3D1B
:103550003C263F3EF107123D10AA6DBFD59A8B3F26
:1035600052AFD5BE6591D9BEEB9792BE3D6C28BED9
:103570001C0D8E3ABDC218409B45403EC78F82BD90
:10358000578A68BF38A9EA3E02FBD7BDD224B9BE2C
:103590008322C53B1BD0D53D8EF13F3F269BA13EEC
:1035A00018A9DC3D0CA691BFFB829E3E0C7E033E1B
:1035B000F5F7E03D9C9B90BD60BE83BDDC554D3E64
:1035C0000F4C1CBCCC3DD1BFBE4C07BEE9EF653EE5
:1035D0009426CFBD33AFC1BFEE3675BD349623BF41
:1035E00054F7DD3DC08A50BF9A5C2C3D94C60AC09A
:1035F000AAD3303FB0EB02BF5FE075BE17EE77BFD6
:103600002B8D013BB3142BBE3996723F5ACDBABEF7
:1036100047F6873D9F484B3F19EC96BD3942033D25
:10362000D584ADBEC441AB3D85D6A33D60192F3EC8
:103630009C060BBE1FFC77BD350B1CBE29FB803ED4
:103640006B382EBDE5D774BF1CF296BEBC1945C0C1
:10365000A072A1BE9E32713EAD87A63DBD45533FCF
:10366000B75D61BF4E4458BD561978BB89CB733DD9
:10367000393FEA3D5F4F2DBEB38B8B3EB78F973CF2
:103680009E98BE3FA93C173E936CB93F6709243E04
:103690009A28BF3F7207193FBF419FBD93B8FB3DBA
:1036A000044828BE4716503CA88EF4BC71F37D3DFB
:1036B000C592AF3D0A9940BFD72D5C3FEE96963D2F
:1036C000C32227BD161717C0362ED33F42D6BF3DA3
:1036D0003FB4AD3D32016EBF51D76ABED23F093A09
:1036E000192516BE39212E3F9D23A9BEE74F133F52
:1036F000E477D4BDAD83893EB3DBA83E50CAFE3E1D
:10370000CA61833EA4ECD6BE50A597BD91B3EEBB73
:10371000950B123EDFE82D3F307D663CC34AF73DF6
:103720006FDBBC3D562110BE2D4FB23D09013C3D23
:10373000617F373E6C6C453FC7A9953E6120E23EF4
:103740002791C5BCF924C43E3681AABED905013EE5
:10375000FC0180BEC44B62BD3B52853EFC82D93E1B
:103760006D0B40BEA11B0CBFE9E6733F6666A7BDAB
:1037700072BD99BE5018AD3EAD5211BFC6F0F9BF33
:103780004BF3A4BE60489EBD8A45FCBE59C004BE32
:10379000597CD33D04B2B0BE82B6983C55D9EC3DBD
:1037A0007B413FBECCCB233E9CE5153F989AE83E3B
:1037B000290C5CBE9B80B43DD874003EBC5317BE40
:1037C0005AD379BF5F166EBED88881BE2D060CBE57
:1037D000AEFE1ABD1AE22ABE695D393E8116A2BE4E
:1037E000E7688B3E4049953F2263DDBE0234B5BD9C
:1037F000BBBF0B3FAF80B43F605A9D3D769114BE76
:1038000045BC2B3F67E73E3D7F9D293F1EB01D3ED7
:10381000F4392CBFFAD1E7BDAC12B7BC2BF31DBFF6
:1038200038FBFDBC77C4643E3A4BB2BEA6954C3E15
:1038300065E40F3E728C823E9646843DDEE939BED9
:103840002B9EF2BEE6FF083EBF4F483E2D76C6BB1C
:103850007B2400BE96381C4020BC0B3E4DAB103F75
:10386000524940BE66D1A9BF11131BBC8F82223FB3
:10387000DA05CCBD4E3B043EFD2F0E3F66FD243FD6
:10388000B9D1A03E43793140632C3D3FE9539CBE02
:10389000E782093EF878A9BD2AF2F73D70CB793E60
:1038A000597985BE97A172BC1F298B3ECD7CD9BCAE
:1038B0002DC2D03F9314973F87331C40C083333FC2
:1038C000DDA7003E661E9B3D52EF423C1A0D46BEF0
:1038D00028D6923D82E44ABD02FBE73F4B4F7CBEB7
:1038E000FC6C483EAA0CE7BE1D9ED4BB50DC3E3E9D
:1038F00022505B3FE40BA63ED1F0793D0D607DBECA
:10390000F07AFA3E023FE3BE6BFD89C099828F3D9B
:103910007BDCCF3D8A3C6E3EBEA00F3DBDABB73ECB
:103920004B5DBB3D209499BEFB74A7BECEE6663DC1
:103930009BCB3DBE926B493D8ACF36BF366D6D3D08
:10394000190FA83E28A8423E1F17963EAFA5913EEC
:1039500064C961BE2EF545BDB627B2BBE34533BD94
:103960001C0F373E98F3B13E838B1CBD398ADD397D
:10397000BA30C2BDF448C5BEB70B29BC16FE573DD0
:10398000F969953D7664BFBD54C35EBE989534BE5B
:10399000A5C54D3C968548BD0CA145BEBBA5A4BDA3
:1039A0005E42C13ECA8B13BFAA331B3E49A6F8BE76
:1039B0006C6CC8BEA2880FBE29241BBEB90962BFA9
:1039C000047186BF5151313F557B4EBD8E15273F47
:1039D000D4BBF03EFFF19EBFCE788CBDF7EE993D93
:1039E00067C329BE7C040D3FFD06B0BEE07F59BE13
:1039F00079AAEFBEF75DDDBE8123243EFA023ABE0E
:103A0000A3DD28BE0A2EA3BE7CF1553F82DBB2BEE9
:103A1000C97CF43D50DCA4BC8509453EA7F4943D27
:103A20007C8BF93DAED6C5BE59B80B3FB9DB99BF0B
:103A3000253F0D3E523210BE47E3013FAE162EBE6B
:103A4000E61A03BE02712ABEDB3F3F3D6E6FF1BE38
:103A5000180987BE935A8E3F8276573CFC5730BF79
:103A6000094DC1BD585699BDFA18AD39DEC646BEDE
:103A70008CCA31BDCF1C8D3EEAE3D3BD5940E8BEB0
:103A80007AA11E3E44B4663FB64770BC5D90B4BD9B
:103A90005CCA7C3E0124C1BDE0F8943EE10ADA3EF6
:103AA000692F87BCFE90323982DD473D84C43CBE1D
:103AB000583443BE117CF0BE5C6816BF5AD5153C25
:103AC000994B63C02FC730BD824E1C408CE89CBF11
:103AD000A2F547BE6473653E98B8CEBD6F9F85BCA6
:103AE00003D074BFFC56FBBE41E25EBE8B99FFBEA5
:103AF0005732803FA627BFBE136A0CBEC200923F5A
:103B00001468A23FA12A043D0386F6BE4951BABDFE
:103B1000808AA93ED12A89BD5EEBF3BE4C5BD63EBE
:103B2000A3BF803DB8A7153F288FC8BEA5E69B4020
:103B3000E2E5AE3D0BF9683E01CD2D3B35100A3F65
:103B4000524C83BFBD44093F31BB14BE619F4B3D06
:103B5000FDDB30BF59FC2EBF60B64CBF3E2A8B3D0B
:103B60007D8C5DBD3F7FB03DFED8ED3DA3BE423EA6
:103B70006134803EF4CCA73FD5F1DA3D6F23B4BE6B
:103B8000C793193EE0D2AD3D56DDBBBDFB515BC0D6
:103B900011FBBABD4D99473FB20641BFCAD10A3E9B
:103BA0001046093FACAB413EC66F75BFF001EC3E1D
:103BB000CA127BBEB7673DBD573517BD92D6BE3E14
:103BC0008DEEFDBF68D5FA3EDB988D3E4874553CBE
:103BD0005950D03E1974903FDD3515BF06E691BDB2
:103BE0008A0B0B3EED245340FC22EE3E73B56B3E38
:103BF000C382D4BE0BB7863E42FE9B3E77CCF53DDA
:103C000073E2923F91D614BEDE0E0640B642983D56
:103C10002A5EB33F7A2653BD7553EF3EDDF39BBC5E
:103C2000552E92BDEB2AC43E63B814BFF1A808BE5E
:103C3000408EB3BEAFAF25BEAA5A1C3CE84920BE99
:103C40005CAA9DBE5E0EC5BED54A6ABE9E151EBD4F
:103C5000DC3900BEFDDD7FBB4C34033CEE4E41BE83
:103C60003446A7BE06261B3E2B56DB3E5A21A63EF7
:103C70002D8BC2BE71F889BE96C2043E356FA83E38
:103C8000371239BE7DD26EBFE48414BDA49CA83E19
:103C90007A017E3D094802BB03C9BBBED840A33EA2
:103CA000EE9D8B3FFBE52EBEA7A6183E163A543E6E
:103CB000F286563D85FB123E7B75863E79D495BFD4
:103CC0006009C43E0B77BCBD711BADBF1F10173E12
:103CD0001386493DD7B97CBE45C78C3D7549E9BDC2
:103CE00050D941BDCD6328BF8CB0323E48EC543F23
:103CF000383A083D03811A3FCC5CDCBE14D55EBE69
:103D0000289A9CBCF2801E3E4FF0853F4154AE3D48
:103D10000EEAA1BDF794A23E9D239DBCF902A63CEC
:103D2000E90FE8BE0D17D9BE3EBB173EF1D566BE02
:103D3000A6DF873DCD0C893D3A7F963FEACC933D87
:103D4000594B9C3EE3AA973CA9B04FBF1B411A3D7B
:103D5000198F183D4BE01C3FEA9AB5BE5FD953BF9F
:103D60006FB4063E3128C33CBDB6563D9D74CD3E72
:103D7000FE7F82BF1901E7BE2DAFCC3F8C3367BFFA
:103D80003748053E8407B2C024EE77BE33D0EF3EFD
:103D9000A5F68ABE98E70040F5181D3E02D5353FCE
:103DA000F5222D3F1A2B15BF51BAA6BDA97BC4BE63
:103DB000B401663DD7021B3D7EF902BDF0559B3D27
:103DC0009B42F0BEDFC5F93F2DFA98BF5CDBCEBE4B
:103DD000B7089C3E269898BDC611B3BEF8A454BD42
:103DE000EFFA22BEA5B384BF5635B73EF1F00ABE46
:103DF000D17F5E3E9EE287BF32AE5CBD271494BD8C
:103E000027F0AB3D7541253E5CD846BEBE1707BFC7
:103E1000155E04BE1BEBAD3D5D46BFBEB6E2EE3D9A
:103E2000C0527ABE8550B13D7BAB923E4D0917BE64
:103E3000BBB4BC3F46E7C2BD4307653E935AFABEDA
:103E4000AE40CF3D0CA188BC8B0EDD3F49CE0C3E71
:103E5000463A74BE87B4F93EF6D5A83E6C78AE3DBE
:103E6000ACB1F43C64DA0C3EA41E8C3FA6E0DEBD8F
:103E70006A90713D5AE7E83EC58B42BF61698ABED0
:103E8000B7AA0DBEE84105BE213677BFDCABEA3EDE
:103E90009361AB3EF05CD33B53172ABDD420B1BE37
:103EA0008EEDDCBD4E7BA63E8A0DD73EA12A693E33
:103EB000BF13D5BCC5FF173F400E2D3FC483EFBADB
:103EC0002C13653ECFB81EBDFC5EB13ED41CE53C54
:103ED000BB4D643F4F0E2F3D36E78E3D3E2384BDE4
:103EE0001A79963E1F1CBC3ECEA58C3EA9851DBEF0
:103EF0003872EE3E3B22F9BF01B6A4BFF5855B3FA9
:103F000022844CBD69B9EE3D31CE02BEBD2552BD05
:103F10009BEE6FBD20F8133C6E2D283F929D3F3ED7
:103F2000B4D280BF00462BBF620E2B3F82A72E3E2D
:103F3000EA96C13C35E4753FA9AE25BF1D0FCE3FC3
:103F4000AEEAE03FDC8B82BED9472FBEC3A3C23DA1
:103F5000B545393D62377D3ED263A4BE5B5716BD81
:103F6000401D08BF18FFF3BD6E31A4BD955EAF3F85
:103F700074B9883DE99B123F9557063FF3E7AAC005
:103F80006746953D1DE088BE1EA634BEFC8AC23E33
:103F90005826983BC5608BBEF79281BE837C7DBC62
:103FA000BD32E4BE3B2C3DBD92B0ECBEAFF7ECBDE4
:103FB000EDFD1DBE54EF433ECBEEBBBCB070423EA8
:103FC000E2D2ADBF8DF758BF26CCA3BE6723D23F48
:103FD000A5B01F3F2025EA3FADE5B83BC1263BBF5A
:103FE000373847BEE600C83E31598DBE0624E5BDD0
:103FF0000C0C29BDA2FFFA3FB059A93DFB3E16BFEC
:104000009AADAABFDF41A9BD9F3ACF3C01A308BF2B
:104010004A6405BE4D2B2ABD8694AB3D1E439C3E93
:10402000F69EFC3DC27BB5BFD0D6953EF00D4BBE93
:1040300001ECAABD661F72BFDE0E8CBBC62F983D79
:10404000EA4CA83D227A173E89D408BE2780893DD4
:104050001DF0083F79ED2E3E4334E3BDA776A63F21
:104060000D901FBE77744CBE2290D9BCA935B13ECD
:10407000993167BC5EF81E3E1B675D3ECC899FBFD1
:1040800049E2F0BDA37896C044297F3DCC737C3EC5
:104090008C8B80BFC7E6AA3D8BCCB3BD662A1EBF02
:1040A000F726913F4C2ED63E9F4E9C3ECB39D7B93A
:1040B000B654A13EF7752B3DB41D9EBE11E3FB3BEC
:1040C000D09E36BEC1526BBED969384067BD33BB86
:1040D000C4BEA63E5F0A4C3D45547A3ECF1471BD26
:1040E000D6FDF13F11DE02BFEE0633BED077DDBB59
:1040F00017EE583E01F8863ED7E9AA3EAEF9683E73
:104100005521F5BE3428313E8F7761BEC663F43D3C
:10411000404F4ABF4234493E51710DBFC3ED65BEA9
:10412000863BEABED4DC07408CD4AC3D6FE21FBEB8
:104130002E6CC03E7716333C7BBBB0BE8DC2D33DE8
:10414000E0B2ACBD2D1EA23F37DA203EAC67F9BD10
:1041500024D6B43D651CDF3DAC65823EA338CF3F1D
:10416000E39A8BBE4E3443BF0912013F82972E4023
:104170000FAAC93B9BD03A3E89CFE3BFE6FFCABD39
:10418000A28BCE3EF51C0FBD6261B7BC726A213DA9
:10419000A989A63E6F252EBFFBAF2A3F8635393F42
:1041A000DB26FCBB53F472BFDAAE0EBF2FD943BE81
:1041B00047BBF93E63A38EBF18A1FBBD3264C13E6D
:1041C0006F34853F3F8F8EBE8CB23D3FE7785B3EBC
:1041D00003099F403D2A6C3ECB6DD73C004304BE93
:1041E000B80A6E3E4D40253D363DE7BEA0A8DCBF77
:1041F000D6AFE93C1DBEBD3E7F5017BFC54E7D3FCB
:10420000A6ED2ABD684F8E3CB1AABCBEE88B353FF7
:1042100060AF3A3E20BDDC3D36FFEF3E469075BDB7
:10422000D7B7D7BC2E1A88BF996990BE83A4C73D63
:1042300001C05FBFF17C14BE5DAE31BD3D138ABECF
:104240008223CDBCAD26963D9291CBBE6D3DB6BCD2
:10425000F91FF53E2290593F6E189A3EC3FE913FDA
:10426000343B913EA48CAFBE04B9733F4C69023F0E
:1042700035DF0EBE7B9912BE51D3BC3CE02AB3BDE4
:10428000B96665BDC2DA583E320B86BEE92B92BED6
:10429000C7ED8A3E40DCDB3F1913043E3EC8CBBE6F
:1042A00048857B3E3874E53D17E6BDBEF32A173FCF
:1042B000E0021E3E8A6B643D6262D9BC69E090BE3A
:1042C00066B40C3FC7AF8DBEA34A96BE67F72B3EC0
:1042D000411B023DAD9CC4BBFBC734BD9A23613D6D
:1042E00054B2DBBE88AFA93D5F6F2ABE7CEA113EA7
:1042F0003B0D11BE1BFFF83D8325813E9E2CC73F21
:104300001A51AEBE40F76FBC1FA1213E3E1980BEC0
:104310006FFF9CBEA07AE33D6715193FEFE9073EAA
:104320008EC6D23EE6F3553E0314633DF769DA3F8D
:104330001DC9A73E2959AFBF03B255BF6B325F3DC0
:10434000F656E23EEB8AFDBD72EF1FBBAB60DCBEF2
:10435000F093923E91CA35BF08D980BE889A8CBE30
:104360007A21273EC50BF7BDA504A8BE44E2193F3C
:10437000C82D0FBD18B1BE3DB34D053E2B8DC23EBD
:10438000C5DE46BE0ED1043F75500D3F9C646F3FA5
:10439000EA812D3E42AFD5BD45DD9C3EACA6E5BDD4
:1043A00027BBB1BEF35694BDF7380ABE0A6BCFBE29
:1043B0007E67063EE91781BFBB4D963FDDB4C3BEA5
:1043C000D594B33F662800BF0DAEB93E835884BE76
:1043D0001525C8BE3BFAAD3DFE5DE93FB94E203F15
:1043E0004874B0BC5CE9DBBF62709A3FF00C19BC4A
:1043F000449DA0BEE43650BFCF39C03C271307BF51
:10440000107C8FBD152B8F3FCA8DF3BEA247333D65
:104410002463A2BD6BE7D33E4D0D5B3C8827103D66
:1044200030F62CBEFC7EC73E4CA926BE2A2292BF87
:104430000E85DA3D309C29BE28CB9ABE71DB13BBBA
:104440001732D3BEDDDFADBC6F1C473EAF8C4BBE19
:10445000B881AE3ED60E1DBF3E52A03CB13B8C3E55
:104460003DB0283E1CB5FA3EBCBE1CBE5A134E3EA3
:10447000DD493ABEF1209FBEBB23013FF682C53F16
:10448000F7CD573E640D23C0C202E8BBBE977EC085
:10449000F14E27BEA3BF833E4362333E9CD24A3EC9
:1044A0006B7243BEDB38C5BDEA7581BEAFC1AEBE1F
:1044B00074FB99BD6BCC483F555AF83ECF2A55BE88
:1044C00097D61ABF7E52D53D2F505EBFA347863C7C
:1044D000D387B83F248C7ABD154197BEC81587BFD6
:1044E0009ADE203E132121BE3D7FAF3E8A721EBE62
:1044F000EF5C98BC4C9565BD8CBC9EBEE4C42D3F62
:10450000F7472E3F52AF1BBF74234DBD5106C03D30
:10451000F82976BF153269BF96AD4FBF633E15BE11
:104520008DC9843FC9A6783DE6C7313EEA25F9BC6E
:10453000018315BF883DAFBC2204BCBE5001C43E00
:104540009310073E8AF1E63E57619B3F6674243E16
:104550009FF3983CCC16833FA4D1A2BF9AE0983F2A
:10456000F3A048BFCA06EB3FD820043F11B0AB3ED2
:104570009B42983D7D4A063E699966BD7AB2333EBC
:104580005FBC97BE9A5B903DB673C43ECF72E9BEE6
:10459000A4301A3E94F799BDE7DFD3BE1C73C93D22
:1045A000EA8AE4BD59A680BEE50C053F32D4303E10
:1045B000D90C973E473463BE98F6BBC0EBC5ABBE83
:1045C0003E0F693D2049A5BE4B5A613D1D53983FA2
:1045D00050BD2FBE7DFB11BE352EA4BE584FE23E0E
:1045E000D0A6913E1346283EB25422BF9715633F92
:1045F00090A299BE50BA4E3CC97EFCBDA44F863DE8
:104600006F7C81BFC76C98BE3F491F3E30D8FEBE4D
:10461000228094BD3C118C3EBA1D813D0E0785BDA4
:10462000844B9CBD6B0D92BED721CC3E096716BE54
:104630002145B6BCF37C11BFFB7F83BE3AAF9A3FE6
:10464000FB59CC3D2354B9BD246824BE82AF91BF31
:10465000B37E42BFAE9D21BE3C0664BD7D18DEBA6E
:104660006E36C3BF3894EABE4064123C13F550BFA7
:104670002403FF3E5B2EC93E3840B73E049A913D6D
:1046800098BA663E4EE2913DDFC1E0BE40CA4A3E66
:10469000E89F823ED8FA9C3FE888A33E2EA0933E36
:1046A000C32BA53EAC509FBD660ABE3D950B32BDE7
:1046B00029337C3F4367EEBDF03BA73D1697A2BD73
:1046C000195569BCEB4B0BBFF45F44BE230C1CBEF9
:1046D000E5572B409C5A9E3F3455E9BE53A34F3EAD
:1046E000E3BC293E914B98BD7519F53DE6616ABF63
:1046F000637D18408DC0DF3D588DD4BD1F4EFB3FFC
:10470000738D0DBD143A33BECFA5C03EA4C3D43EB5
:10471000E5ECF63DDA61FD3DC16CE2BE166CEA3EA9
:1047200033FE543AE2AE88BE8B323BBDC9CFBF3EAA
:10473000F2C9D8BEBB8E21BEEF53E4BDC96827BE07
:10474000D59B13BE13C44640F0D905BE82C081BEBE
:104750004FF0E1BE5488873DE821C7BDB017A43DA6
:1047600023758DBEE84AACBFF87963BFDA1C083CFC
:104770003A73E9BE7B3B15BEB15888BE6D8EBBBE99
:1047800031F3E63A57C80640F553A2BEDD7F1A3E24
:104790007C68473DE2B2D9BCBF3E893CE686D3BCCB
:1047A000BFF719BEC06874BD33CA643F3EAB06BFD5
:1047B000D3855E3D1FDD863D501969BFF750F0BEC1
:1047C0003005A63E894A273F0A255E3FCB9D203F04
:1047D000FB1B74BFD7F7753F605AAE3E610C123FAA
:1047E000B0DD8B3F9D06C7BF9E9424BEE935E73EF2
:1047F0000A47723FAA59833DF0189D3D89C7353D50
:10480000398306BE8FD7F1BD31D955BDD1BB023F2B
:10481000ABA51ABE8C45963E508D663E597C0D3D2B
:10482000126106BE8579453FC02F8C3F6C1C913EBE
:1048300028FEEFBC78A5773E48747BBECB851F3D34
:10484000C98FCBBE041E613F211F18BE6944BF3D06
:104850005FDBE13E809BA3BCB1608FBEDEF74B3EC9
:104860007A6617BF12E4FF3EFEF205BEA9C8063FF6
:104870008E05EDBF6F2DB2BF73588ABD72F3553DE3
:10488000F01B03408F3A45BCAC9FAA3EE3643C3E1C
:104890002281CDBDDA055ABD18EAAA3E612FDA3E63
:1048A000B3271ABFFECFB83E195FECBA6DC957BF28
:1048B000D135B9BF4922DB3D976CECBE36D989BFF3
:1048C000F565ACBE728AA0BE868253BE1451B23E5C
:1048D0007053A03E00B691BFA7E806BF1C92443EAD
:1048E000EB0E4D3F50A3773E640B673D54B6AC3F93
:1048F000E3EFC63B08C21C3FA0C342BE37646ABE9A
:1049000029776FC0873C66BE561F05BFB26235BFB0
:10491000AB049CBE576006BE0DAC823F8093A4C022
:10492000668B58BFF4C0823EF5B274BEA5EBBC3FA7
:1049300091CCE5BE3C6470BE74482F3F60117A3C58
:104940003D5416BE543F503D477EA43EED1B603F94
:10495000DE6A013C591CBABE010E99BD76D7ACBEC9
:1049600015DFE23E2D30D03F0AEB1B3F61ABE33E4B
:104970007073113F7D9C4A3DB03FAE3C4AE85B3EC0
:104980006EEC5C3D33F5C1BEE8AD6B3E167096BE75
:1049900046EFC9BCA14BB83D971B483FDC42A2BFC4
:1049A000A612123E53D66FBEE74A1640E8C41B3E1D
:1049B00031CC5ABFC52810BF9F276CBF4C28D1BE31
:1049C000381665BF9127A53E28C0163EAFCFFBBD68
:1049D000200D003CBD26F1BF165C48BEE1D015BFDE
:1049E000F3B6DE3E72C50A3E0B64D0BEED92CC3EFD
:1049F000413B4E3CC730BC3DD906B53E866E673F55
:104A00002003F7BF33879EBEBCD3223FD895203EFC
:104A10009F21BA3C5104443FE17091BF3E92513E08
:104A2000ADE79F3E133E343E9A2311BD3E9208BF30
:104A3000C576443D211E5DBEBC6F373E8D7969BD94
:104A40008A8B463F4508853FC0AD9FBEFE3F303E46
:104A5000685C78BFB25C253E0764B63E057B6B3E62
:104A60007704213FEB02613FB6C201BEB2BD24BE56
:104A7000681A05BFF2D4B33ED335523EC6815F3DBE
:104A80005F41E83F76742EBFFC5CC13E914E1FBF74
:104A9000CC6477BD16BBE93E45F04BBE9603F2BC35
:104AA000049ED03D4251383F5619573F2FE3B8B9C5
:104AB0006FA523BF21C09F4042130DBD711EA73CAF
:104AC000FECDF23D0201873E03FE463F55D072BF48
:104AD0006DD07E3F35560E3FD15FFD3EE60095BD61
:104AE0004E8127BD21FA21BF579BF7BE3FAC49BD80
:104AF00047A6653D2F5DD03FC320693F48BA29BE18
:104B000088ACD73EF98AC23EBE33803E3F90ABBEF2
:104B10003FBE6D40236E134030CCAEBEFB2601BEBF
:104B200086C183BE7025AE3C09DB7D3E319AB03E26
:104B3000548B723E1A750C3E5D451DBE8D2B583F41
:104B4000824EF4BD79C8C13DA343D5BC31C6873D73
:104B50006363D13E5D2E62BCAB1BDCBEA517413E3C
:104B600031E7453FDB0F82BEA8C3513E142CA33F63
:104B7000BA5B66BF6005C3BC924AF23DD941D7BC5F
:104B8000E8B0973E035B18BF8B63D5BFB7EC693EB7
:104B9000F26983BE3B55B3BA45EAE8BEEF2C973DB8
:104BA0004634044021B484BED66F7EBF5255DEBE6B
:104BB0004D6C45BDA56D053F6F6753BFCB232C3EA4
:104BC0000A28923EF910633F3FAA723E9B7995BE38
:104BD000F086403EAFA72B3F773D42BDAE09D53BA7
:104BE000A96015BEE573123E338BA6BD8FAB1C3F8B
:104BF00039F3453D9D4B2BBE355811BF216272BD27
:104C0000D3C2BCBECFFB8EBEB2F07EBE1EB7B63DD9
:104C10003E73E43E13C5263F5BC3853F53DA82BE35
:104C20009FC824BD362631BFB4A8A13E89F49FBEDB
:104C30003BE20BBE211625BE579492BB28D17C3E89
:104C40006387D6BEE9FA313FCBF2D1BE6E498A40C6
:104C5000988E4B3D95465A3EC8FD0B3C290A113FA4
:104C6000EAE0113FF70BAC3D946395BC1604F43CAD
:104C7000E4A076BE248F83BE8936893DACF8123F0E
:104C800080DA1CBF524CF2BC5BCFA13DD6BE1E3EAB
:104C9000A1B5293E3CE32FBE92171BBF5DD99ABC3C
:104CA000A64E16BE9D938DBEDA0717BE8A282F3EEC
:104CB000A2D8EC3FB64D02C0955986BD59216D3E34
:104CC0007534D7BE6A15873D049637BE304425BD7E
:104CD000E718943DD29E43BEA584F73F6919A63DCF
:104CE0004B9307BED5512A3F9B94753D8892BEBE1B
:104CF000F31C89BE9D712A3F5768DBBD7C4125BFEF
:104D00004B45B8BE5C8DEBBEE054A43D5F70893E60
:104D1000C0D359BFB89E52BD3120343E27212A3E10
:104D20003536A4BF4F3B1A3D838E17BEE3F071BEEC
:104D30004A100C3D48E9453D86C819BED6E2FCBD87
:104D4000B0084D3E4106143F363FEA3CA8ABDDBEFD
:104D500063F0BCBEA3AFE63F45AE4ABF7C4494BC03
:104D6000480BC83EDB44F8BC2CC54DBDF55C833E0A
:104D7000E154DABE7AA18D3C76B30940084458BFAD
:104D80006D3B173E79E6883F6D8554BD60F796BD53
:104D9000D5EE20BECE99F0BD39E90ABE87D5D53E05
:104DA000F57A01BFC8E2F73E8A75A13ED601073FFA
:104DB0001C3CB33CAC3C553EFB983A3C6C9CDB3D08
:104DC000823592BDC44D913E39B502BFB0DB65BEA0
:104DD000621B0DBF36DF4B3FBBE8403FEE3D063F59
:104DE000789CB43DF471DBBD1870033FFBA8D8BEBE
:104DF0002644023EB5686F3CD04899BEDDD6FABF66
:104E000018B71F3F5478193E6BA8B4BEE9067CBEA4
:104E10002F77423E26D7FFBDC6C0D23B7D02DC3D88
:104E200023F28CBF21619EBD6CF4203D03B5073F8A
:104E30001278D33E7ED7DDBEF07A72BE75CF0BBE40
:104E4000BEB65BBFA7A7B0BEF930ACBD3787DEBC2E
:104E500060EF96BEE08B5FBFB118B13D0928463FB9
:104E6000FA5E0B3F3994FA3EF4552B3E04378CBD65
:104E7000B21ECFBD6225B4BE39940DBE2008CA3E15
:104E800017FF0DBF6B95A6BE89563EB9D841473E68
:104E9000E6AE5B3E325BFE3D9ECB8D3E9A2AB93D2F
:104EA0005A85E13CA58E463E395C043F806E8E3FBC
:104EB00082740EC04D937CBFF36AA23E3461173FEB
:104EC000BC4697BD1DE6D93EEB590C3EA1D90D401D
:104ED000A83C40408521383D74B352BEC0E26B3ED1
:104EE000E59F013F2A3B0DBEC8C7693E093E49BF49
:104EF0007435113F9816FFBDC633CCBDD456B8BD2E
:104F0000D3802BBFF884073CFD2115BEBA1FDB3EC2
:104F10001C293A3DD2FADF3DDDACC43D3E2058BDF0
:104F2000D955D4BF30BE573D5FF4EE3EEB151BBFE5
:104F30001BD2353FFACD80BF88F2ED3E53362EBFEF
:104F40004E883CBFAFA2BA3DE52AF03D032234BEF5
:104F50004106C9BB240013BD6C76B6BEDF28A2BCD7
:104F60000B64A1BE0304C53D559B7BBF3E55133F5B
:104F70009589ADBE5DABD43E3CA284BF4CEF993E5B
:104F8000D68FFBBE13F4043F100B4E3EAC641FBF24
:104F9000496BE8BE1FD32B3A43C5A83EF6702D3FA0
:104FA000E726AE3DF64DFEBE0B30A7BCAA8CDE3D1B
:104FB0003C83243F6E4602C04C23AABFED8ADF3CEF
:104FC000EB20B03E67F3283E6D656C3E6E9EDA3D89
:104FD0005A1DB43DF2B8673D7BFEC1BDEB3A0CBF34
:104FE000319D6EBED768B3BE5CC76ABCF49C39BD48
:104FF000C46E263FFC84453EE3B8493F18D7C33D05
:10500000C2E6ACBDA5514B3C26A78740881C423F59
:105010002AC8733CD6D0843EDEDAACBED8AC453E5E
:10502000D17DF7BD5FA8CABE857E703E895409BE9A
:10503000D79DD83FA647A93E8921D0BC66E7223F2D
:1050400068D1E73DF18315BE95E91FC0B193913E4C
:1050500039AF253FCFB8F03E930E7EBE361D19BF47
:105060005B6A73BEB70E14BEC1AE6DBF7324CE3B78
:1050700055A527C0E23D9F3EC2E12EBFF71F00BEEF
:1050800042916CBF73F4F5BE80BBD2BD10FB48BF2C
:105090006F570D3FA7047D3E51185EC0CCD098BE1F
:1050A000C8EC8EBF2BFA9F3E88F1843E8F5983BF98
:1050B00087F1773E0EEAEC3FBE68E63E2109203ECE
:1050C000EEA7223D7A6D3ABFAFFA213E2F30F83D70
:1050D0008B1B19BE820F00BE8F9739BFCAC4E13D3A
:1050E00001D60E3FE84F203EEAB2813FFC103FBEA2
:1050F000061FB0BECE8D85BEA39E1D3E7B4AD13E0F
:10510000DF9C36BE0B8E2D3FC5B469409F90DE3DBF
:105110007A7D3DBD889499BED64813C053A657BE2C
:10512000C6621F3F90B0CA3EEC1C1EBEDEAE2CBF56
:10513000D027FEBD934CBF3EEB3EAD3E1C14A33EBC
:105140009A99CA3ECCF855BF6BCD5F3EF66704BE58
:105150008CA582BE5BEB05BFCA2603404AFCE9BDB5
:10516000477A803F5A204E3DF7D6953ED35AC43DEC
:105170005E570EBEFE2430BFA2CC053ED32124BD17
:105180002335F5BDA59F1A3EE9492E408B1D3F3FB3
:10519000F99B2C3FB5128BBF661159BF8FFA90BE99
:1051A00011B83B3C468CA0BEC671303E68DA523E18
:1051B000F2C5DF3E1D59B83D6D82053D2A7F403E58
:1051C000426382BB1D0960BF2DAF8BBE9510713F3E
:1051D0003983943FE657D4BEA3112A3EC4B7EF3EAD
:1051E00095F9CDBE2705A6BA0C8643BF1201BE3E77
:1051F000AEEB9EBEA93BE63E532C6D3D7B17873E32
:105200005149103E2ED1A13FC99014BE8C156C3D62
:105210008A0FD73EE6C79BBE5E221B3F2C34673EFB
:10522000BD9BD33E509D6DBDEF5C4C3E3AF8B0BF88
:105230000CA32C3DA08E90BE77A03A3E9941973D9D
:105240009804353FCE02043E889C273FA9FD8D3B44
:105250009E4E17BE889A143E6F0EF43D8C75E4BEC8
:10526000B80BD53CA029C53C193FF1C015497B3D81
:105270003777733FFF60263EF17F7C3E83E816BEA2
:10528000748499BEA24F603EDB8A2940EF07E33A5F
:105290000F0F8B3EDB269ABD30BF0ABE74FD423D28
:1052A000E3648CBCBDF190BE3C32193EB36A3DC094
:1052B0009FB387BE848569BFC6660CBD4B6EA83D93
:1052C0000C2FAF3F2AC916BFEE8F033DCAF01ABF9D
:1052D000C1B02BBD03847FBDB9B112BFFC92733E38
:1052E00013E1D93EDA8793BD6BE3563EFB20263EA1
:1052F000687320BFFC345BBEF76828BF2180733E13
:1053000040E735BFEC691E3EF6D038BE627DDD3C1D
:105310001C752FBE7FE4D03EAE9B133FDFEF1CBE5B
:10532000BE7FEABF34A4BA3E53AD30C0C981503FFE
:1053300057DD0E3E5ACCB13DF0C2183EF9BA6ABFF5
:10534000A3C4FFBD5CF9A43EFC69E7BA0A83CA3D69
:105350003E27883EC0BD123E3D5A91BFCAD23C3E58
:10536000744F9B3F1187033F32A7A03D91A6CEBE4D
:10537000BB301F3DB755D93D555965BE8AE29C3EAD
:105380005CF2663FE0A98A3FBB43483F9D1AB0BE2E
:105390006A9CDCBC256E0DBFEE4061BFC926E43DB2
:1053A000DD1533BB598924BE68B58DBF5B69283EC6
:1053B000D753493E3F60BF3ECBAC94BEB4ECA13E58
:1053C000D400833F940329BF6E1C95BDA2AA67BF7A
:1053D0002B3124BED1D51DBE2FD9B4BF77CCAABDE9
:1053E000282C2CBECBC001BFAFFC15BF4D91A7BF71
:1053F000160CEF3D120E05BE67FF62BE5F79BE3E22
:105400001EDD793F8C58B5BD9A5B0B3F43266BBDC3
:10541000EFAD1DBEDE4652BD835991BE861475BDEB
:105420004A34BEBED1B1A43FE87B7F3E5A5AF0BE9B
:1054300089E7F73F086AFB3D3BE9B23D7EA9FDBC29
:10544000290F59BF0602873D97A073BFB46AF33E88
:105450006B3E19B7F93502BD122CCFBE8459163EEA
:105460000DF4B43D9F7BA0BC7586443DC5C20D3F85
:1054700076A606BEF47415BF129F703EED99BB3E32
:1054800069B212BECCEA733DEFEA493EC87EF4BE73
:10549000C5DE193FC1D66E3EEA4D67BED276063EE6
:1054A000720DD83C791C123E21D2D0BD882C08BD8B
:1054B000E0FC5F3F0B137F3D91256ABD2CCEEC3E97
:1054C000E6AFABBE34C6733E9ED0083FCD7B8BBDEE
:1054D0008539413EAE146CBD2982913EF8CCC5BEE3
:1054E000F54652BC8C8C903E4524203FE5D11E3CB5
:1054F000062090BD93AC053E1BA58DBF3CBB503D27
:105500002DB78EBE0F5A693EFDDFFA3E936B86BF04
:1055100092B0363EFFDAB0BD39BB2CBED8E47EBEB9
:105520009059AA3ED2B863BE9CAEA03F10DED0BC5C
:10553000F7191A3E205410BF04B1BA3DD51158BF17
:10554000B42A3BBD89420D3F06E7F53DBD5CAABDCF
:105550006951EA3E1F7EF3BCD53AA83FC3CD8FBF49
:10556000E7A33ABEB379EB3E29B487BC60793E3FEE
:105570008DBC0FBCC730E9BF1EB7DD3E896F28C0A8
:10558000E93C5BBFF97284BFA16B34BD13C3FABEA3
:1055900051E234BF9B21D9BB8ADA633F5634D43EF3
:1055A000422BD43D6CEB0CBF747AF63C4C83A5BE09
:1055B000281FD4BB080328BDD3D0AB3D8220563E64
:1055C00010041DBDA7CA32BD0648BBBEFAF582BF96
:1055D00025FBC63E2DC51D3ECF03423EFC64DE3D8D
:1055E0006317F0BED7F2DF3ED7E0933FBB61303F99
:1055F000F151AA3D6A2280BF89718F3D33A1023FDC
:10560000765A0E3FF24AA44049D6FC3F7107463D08
:10561000334C9E3E4C1B493DDA003C3F51E1863FF6
:10562000A197B0BEF3E828BF20E8E13D35FF09BFF0
:10563000DC8DE63D74C6BC3EA55BA0BF946E38BF52
:10564000B690663D8432F63D2AF039BF490885BEE2
:105650004BA3553E85FF933C55A8733F9AC0323FFC
:105660003CCFA8BF179A5A3F0110BFBE7548523EA3
:10567000787CB93EAA02E93C6F627ABE3CAE4B3FF1
:105680001CD338BE1E948CBF44C7123E3C26B1BD0D
:10569000392E743FBD5A31BDBF86BDBD4B26E9BE14
:1056A0002936933BDFD88D3FA34795BF47092B3F52
:1056B0001E49D1BEA79A1A3FA7952FBEBF3E1B3FDA
:1056C000D465323DE0C2F43C5D7EB8BD9D2929BF62
:1056D000AE6FB6BDBA5125BEACA627BE8E94A0BE95
:1056E0004E051EBF582C62BD8FE4D6BE9D7433BCE0
:1056F000C36EC2BE3245313FA3C892BDEC8D963F0A
:1057000063766CBE6B08C7BD60687B3F3CF4A93C08
:10571000BCBB7DBD3B31BB3EB496EC3FBE7ECE3DB7
:10572000AE29193E143CF03E35ACAEBCD11B1AC0BC
:1057300040DB723ECC51133FBCF8BDBEF4CB25BF5D
:1057400061C681BCFF380E3D72F3E3BD523609BF1E
:10575000F2D75A3E27E09ABDDDBCF4BC94F023BCDE
:1057600058050DBE32A7ABBE189FC33E7652D73F39
:105770003E92D93C2FDE2A3D7D5DC53DC381963EDC
:105780006714A5BE029D06BF8AB0103F7B9D5D4099
:10579000387016BEF1A9493D899D103F7896E4BE48
:1057A000A44F6D3FF055F7BF0E9D4CBF0A7518BE54
:1057B000C159F4BE9C09D4BEBC87E6BD3172673DB9
:1057C000119175BF7FC93BBE8DD359BC4353BF3DBB
:1057D0001F1034BF26AD6D3E44C5CD3E029F3E3FF7
:1057E0009F1905BF20B2D0BE220A323A9D8EF13DEC
:1057F000A8AC9BBE955912BEF90486BEB153963F24
:105800002DFE963F578D50BF46894FBF70A0E1BD1A
:105810001679DCBE2A89C9BE9EC8343FFC225E3F91
:105820009F62B2BE5D63F9BEC83AB13ED7B7513D83
:10583000C7FDCD3C8B40A43FCCAE02BF8F532D3C67
:10584000E9EC20BF3622923D0206D23D239776BE78
:10585000F7BFA73D7F4047BEE0D8CEBEC4A9E3BD99
:1058600050A946BFA1CB8F3F9EB3B7BD4B27753C18
:105870006ED4B43DCBBF293DDD175B3ED16375BD12
:1058800010C3B2BDC8F4E83E05CF1B3E203100BEB8
:105890008187803E0F4D46BEF94BCFBEADB4043F6D
:1058A000FAEA44BDD82FD7BDA9258EBFF19601BE17
:1058B0000E3A49BFA3793E3EC742853EFC52EB3AC1
:1058C000125572BD4F1DBBBE046D913DE950C5BD63
:1058D00057EE25BFC9B9C53E6267223FF84F763EF5
:1058E0006FC1AB3FC62584BE9F22933F8D22C2BEAF
:1058F000DBAD673E45E434BED922DDBCE7D2BE3F16
:1059000018AF42BF711E183FBEF0A43DE0CA543E1E
:10591000B830DABD9D3E70BEEFDECC3D8E8F133FBA
:105920009A60723E8A2E883B548FE3BF56D5C8BD1D
:10593000A862AA3E9548DC3E4B3A063D1C5EF9BD86
:105940009C2007BC2A1212BEAFAB763E4D88963E15
:1059500060EC7EBED81BA53BDC8E8A3F6375AABE79
:105960009721B43F627A4ABE305DDFBE1DBBD8BD11
:105970006CE03EBD81F29A3D89BEACBE0EDE27BE14
:1059800033CB333EBFFD24BEA2AA363E598900BEAA
:1059900033BA3D3E6588353F4626163EBB0DD1BE27
:1059A0001F33CE3ED8278E3E6CA13FBD95179ABBC4
:1059B0005BB2243FE34837BF0675213F2A6E41BFE3
:1059C000BE1185BE5BCFB3BD2F7BDCBEE6A7C0BEDC
:1059D000BBDC763EA360DE3F6ACF833E6BF255BFF1
:1059E0000AC93BBEF3094DBE1C785D3D42EFAF3B9B
:1059F0008D0B0D3F9226643FCA00FCBEB48E203E44
:105A0000418FCB3EC3CEFC3D3585DD3E0435883D20
:105A10004B4D0F3FB3039B3EFC33353FB010ECBD05
:105A2000CECE013ED788A7BD21B6973E4B15C83DC7
:105A3000039EB4BC52E2F9BDCD3BDFBFAF589FBE61
:105A40007597C9BDE666993C6012E2BD46D6983EA0
:105A50004A3CD13FA5249ABD2071CEBE7FDE4DBD0C
:105A6000EE2DACBEFD3562BDB9DF2F3FDED2253C49
:105A70006E8CCFBE61643940346F34BF899796BF56
:105A8000EFF8233EEF5000C0BB3503C02282B7BF02
:105A9000F2BB45BD0617583E088D983ED68345BFDC
:105AA000D296973DB7B252BEDB0A44BE29E5843E8A
:105AB000F2AF813EC9EF39BD30307ABEF127253DC6
:105AC000896C1A3D99BCDABE8A3B863E9D3D693E93
:105AD0004D3BEABCCC82CD3C6459A53F3AB611BFE0
:105AE0007BCBDCBE03D3D23DF0B43BBFBF3BB0BEEB
:105AF000D3A7313EA7B56F3E5290203F538113BFCD
:105B0000B0DA8FBE8C0F493D0AAEF8BE47C454BF11
:105B10004FE04E3EF7F5B53F9A1383BDF56FCF3D8D
:105B2000065A7FBEEEE3093EC31253BFCCB5983F81
:105B3000077B113D8736C03E619D8ABEF9F52CBFBB
:105B40007FEE4B40701C314077DA843CB8FA383F26
:105B5000D5E5A23E3778F93E7C1B9EBEFB63F23D45
:105B600002205FBEFCC7DA3E9F3299BD2C52943EA4
:105B70001017DDBC909612BC8B077FBFB3BFA3BECE
:105B800009A6D7BE47131D3E35BFB73E003BCD3CEF
:105B900058991ABD374F643D8D7896BDEDA0A7BDCD
:105BA0003C9B8ABEF29DF63CB0D7DEBDF88BC7BDEC
:105BB000D0E01FBEC72AFB3E5B8BF53C354A85BE55
:105BC000FD3638BFE790A53DF9EEF23D7068673DC0
:105BD000676C8D3AAFFE83BE9C94BCBF70BAD43C58
:105BE000822F73BD9F546FBFB85801BC484D973E7C
:105BF00027130BBFE90249BE705F1F3ED237EABDD3
:105C000032EA1ABF723EEFBDE156B5BF70B835BD7E
:105C1000C0794EBE9D97F53CB1CD39BE1BB3BA3E9F
:105C20003998D93C42E89D3E0CF2333F361783BE8B
:105C30009308E23EF3AC383F434A963C825213BF8E
:105C4000B90C7ABFF6C08D3C1FE3A3BBE9FCEBBDEA
:105C5000F522E03F6FB465BEF438D7BE0BC3BB3D41
:105C6000107F003B8017D4BE87672FBFBE217F3EC9
:105C7000BA39A5BE1646163FCFFE89BE7CA5833E27
:105C8000F673944011498D3DE789A63DBFE88D3EEE
:105C9000A2AD3B3D9C05EEBD8B719C3E0B74CA3C96
:105CA000CC3EE03D7A5524BF09CF9BBE97D14B3CFB
:105CB00026EDC43C440D07BC099C6A3E00BCFFBDF8
:105CC0004F03123CFB02F9BCB693E73F8875B13D28
:105CD000C667723E76A029BEF58BA53D7026C1BD74
:105CE000F70D073F508B5EBE66D4F93E4C951BC046
:105CF000081240BD314B953EDF7884BE0FB7763F2A
:105D00008C1C883D43919EBF0B7B2EBEC8CD52BFDD
:105D10006D10B1BD4AAED73E31C09EBF20BF37BD6A
:105D2000DF64823D1F35C5BD7340D53DD1FF354091
:105D3000CCCD02BF01B9873EA008B1BDBAE5873D11
:105D4000D6F78E3ED0E42EBFA919F4BC93B90CBF90
:105D500021E2463FE789BD3D809B15BD332EBB3D0B
:105D60008F35D43EECEAC43E02ED5340C50F9C3E55
:105D7000B468923E9FEAC23C7FA1273DB5A98B3C07
:105D8000B09C903E68D7563CA5ECD73FFB253F3EE4
:105D900032B1153AF56C7ABE3A3589BE864F06BFE8
:105DA0005B63843EDF50DFBED5A029BE9F99953E40
:105DB000E98C67BE7624BEBDED1F5F3F041244BF71
:105DC0001EF5D13E181AFBBC8EF99CBE3CD123BEF9
:105DD000D8EFE23EEBE125BE0A6A823F00C9C13E30
:105DE0002D1E8EBE86A7CA3F07631CBE5E1780BFEE
:105DF0003309013D2CBC51BFC29F0B3E6B88B23DA5
:105E0000F18F9E3F334A8ABFA595EABF509B91BD53
:105E1000C9FE11BE96C5833D04A9473E09F94E3E11
:105E2000BCA72BBFEAF4DDBECE1B973D76D443C0A2
:105E30006381763FC76D473FC84337BD465E513EDD
:105E40006368DCBEB245F1BE92F1ABBFA29E8CBED0
:105E5000EB9E82BE4C7C223F39D100BE73087C3E53
:105E6000856100BE7C8D49BE0C81353EE91784BE3C
:105E70000DB69A3FFCD3633F9822E8BC9AD0683EA7
:105E80008DDDC53E25FDBBBD20CC6BBD7EC1D13DAA
