:10000000F8FF0020110400007F3000007F30000066
:100010007F3000007F3000007F3000007F30000024
:100020007F3000007F3000007F3000007F30000014
:100030007F3000007F3000007F3000007F30000004
:100040007F3000007F3000007F3000007F300000F4
:10040000FFFFFFFFFFFFFFFFFFFFFFFFFEFFFFFFFD
:1004100062B605F007FBFEE72DE9F0439FB00FF64B
:10042000A836269CDFF804898DF83B400291002411
:100430000B944FF0FF37044691461D460AE019F829
:10044000011B0298A0470028029000F0A1800B98A1
:10045000401C0B9099F8000050B12528EFD10021E5
:100460000022059106920791089209910A9203E0F1
:100470000B98A0E041F0010119F8010F2028F9D0F4
:1004800023280CD02B2804D02D2805D0302809D0C3
:1004900080E041F00201EFE741F00401ECE741F0B8
:1004A0000801E9E741F01001E6E70D920AE00D9836
:1004B000404505DA00EB800002EB4002303A0D9235
:1004C00009F1010999F80020A2F130000A28EED3C1
:1004D00099F800002E2818BF0C9726D119F8010FA3
:1004E0002A2808D12868286009F1010950F8042B4E
:1004F00028600C9219E02D280CBF09F10109002099
:1005000000220C920BE040B90C9A424505DA02EB4E
:10051000820203EB4203303B0C9309F1010999F885
:100520000030A3F130020A2AEDD3ADF8381030467E
:1005300099F8001000F098FD08B119F8010B8DF83A
:100540003A009DF83A00682805D199F8000068281B
:100550000CD1622106E06C2804BF99F800006C28D9
:1005600004D171218DF83A1009F1010910A8049005
:100570002A4619F8013B6946204600F05CF838B974
:1005800010AA6946204600F086F900287FF562AF80
:10059000384610E02A2888D12A682A6052F8040BCD
:1005A0002A6000280D9003D540420D9041F00401CF
:1005B00009F101098CE71FB0BDE8F083622820D063
:1005C000682811D06A2803D06C2827D0712825D13B
:1005D0000868C01D20F007000860D0E9002308303B
:1005E0000860194610467047002A0A680A601068B9
:1005F00003D0121D0A6000B217E0121D0A6080B21B
:1006000017E0002A0A680A60106803D0121D0A6009
:1006100040B20AE0121D0A60C0B20AE0002A0A686D
:100620000A60106803D0121D0A60C1177047121DBE
:100630000A600021704770B51C460D46B4F12500D4
:100640002E69114600F015812038022863D913382D
:1006500040D00B3816D0401E1ED0401E02285AD95A
:10066000001F19D0401F00F08180401E32D0401E74
:1006700000F0CB80C01E00F0DA80801E2AD0C01EA1
:1006800028D0FCE06869421C6A610A680A6052F876
:10069000043B0A603354FCE095F83A000122FFF76E
:1006A0008DFFC5E90001002904D56869411C696115
:1006B0002D220DE0288F810704D56869411C6961EE
:1006C0002B2205E0C00721D56869411C6961202201
:1006D00032541BE095F83A000022FFF76FFFC5E99E
:1006E000000195F83800010710D5D5E90023002B4B
:1006F00008BF002A0AD044F02000782806D1686993
:1007000030213154401C421C6A61345421466869CE
:100710003044E86087E00868C01D20F007000860EA
:10072000D0E9002308300860C5E90023D5E90001BD
:10073000C80F04D06869411C69612D220DE0288F23
:10074000810704D56869411C69612B2205E0C00757
:1007500004D56869411C69612022325468693044BB
:10076000E8602146284600F0C4F992E005F13A021B
:10077000507820B14FF0FF340FF6540062E010784B
:10078000622808D0682824D06A2812D06C282ED07D
:1007900071280ED02BE00A680A6052F8040B0A6038
:1007A00020B94FF0FF340FF640004BE0E96A0170CA
:1007B0006FE00A680A6052F8040B0A6020B94FF033
:1007C000FF340FF624003DE0EA6AD317C0E90023A6
:1007D0005FE00A680A6052F8040B0A6020B94FF023
:1007E000FF340FF604002DE0E96A018051E00A6849
:1007F0000A6052F8040B0A6020B94FF0FF340FF280
:10080000E8701FE0E96A016043E00A680A6052F894
:10081000040B0A60002120F0000221F0FF33C5E93B
:100820000023EE607821284600F0BBF831E008682C
:10083000086050F8044B0860EC603CB94FF0FF349E
:100840000FF2BC7000F020FC201A70BD2E6B002E41
:1008500004D5204600F038FC044608E0324600216A
:10086000204600F04DFC002814BF041B3446AC6148
:100870000FE06869411C69612522325409E0696909
:10088000481C686125227254210002D0431C6B6110
:100890003454002070BD2DE9FC410F4606469046B9
:1008A0007A6B7869396ABC6A121AB869521A796A1D
:1008B000121AF869521A121A97F83800141B4107D5
:1008C0000FD42020002C8DF800000ADD25460123DE
:1008D0006A463946304600F05FFB00285DD16D1E48
:1008E000F5D17B6942463946304600F055FB002879
:1008F00053D130208DF800003D6A002D09DD012321
:100900006A463946304600F047FB002845D16D1E47
:10091000F5D1BB69FA683946304600F03DFB002846
:100920003BD130208DF800007D6A002D08DD0123C9
:100930006A463946304600F02FFB70BB6D1EF6D17B
:10094000F868B969FB6942183946304600F024FB63
:1009500018BB30208DF80000BD6A002D08DD012392
:100960006A463946304600F017FBB0B96D1EF6D125
:1009700097F8380041070DD52020002C8DF8000095
:1009800008DD01236A463946304600F005FB20B9F0
:10099000641EF6D10020BDE8F6814FF0FF30BDE8BF
:1009A000F6812DE9FC4307466F293E6908BF0824FC
:1009B00005D041F02000782814BF0A2410243C25DB
:1009C000D7E90023642918BF69299046994605D1C3
:1009D000002B03D5D8F1000869EB4909B9F1000FE4
:1009E00008BFB8F1000F1FD1386BE8B9082C4CD103
:1009F00097F83800010748D530203B2586F83B00A2
:100A000043E000280ED597F8380000F014001028B5
:100A100008D17B6B7969386A5B1A1B1A9A1A002A0B
:100A2000C8BF3A62BDE8F3838DF8001040464946DE
:100A30002246E31700F090FB3032D0B26D1E3A2808
:100A4000019504DB9DF80000A0F151018A18725550
:100A5000404649462246E31700F07EFB80465FEAA7
:100A6000010908BFB8F1000F03D0F8687119884276
:100A7000DCD3082C09D197F83800010705D5705D43
:100A8000302802D06D1E30207055C5F13C02BA618D
:100A90007119F960386B8242B3DA821A3A624FF602
:100AA000EF70398F01403987BDE8F3832DE9D043DA
:100AB00006460F4614464FF00008DFF8749212E025
:100AC000E00707D542464B463046394600F05CFC0D
:100AD00006460F464046494642464B4600F054FC07
:100AE000641080468946002CEAD130463946BDE87C
:100AF000D0832DE9F047064689468EB0D6E900013D
:100B0000CDE9020104AC306B002802D50620306329
:100B100005E001BF49F02000672801213163D6E9D3
:100B2000002358004015401C0DD119030BD0A9F12A
:100B3000610103201A29B06102D20FF2E04110E0F6
:100B40000FF2DC410DE059004915491C0ED1180384
:100B50000CD1A9F1610103201A29B06116D30FF25B
:100B6000C841F068032200F0E1FCDBE023F000471D
:100B7000B7F5801F1046194622F000050DD200225D
:100B8000002F08BF002D019203D116E00FF294410F
:100B9000E7E701AA00F01EFD08E06648664900EBA1
:100BA000175001906548034010461943019B644D5E
:100BB00047F29752534393FBF5F2C6E9000120F048
:100BC000000331F0004104BF002B002300F0A2809D
:100BD000DDE90240019220F00045D2F1070204DD78
:100BE00020462946FFF762FF0AE05242002055499D
:100BF000FFF75CFF02460B462046294600F022FD27
:100C0000044649F0200ABAF1660F306B06BF019D19
:100C10000A3506252D18142DC8BF14253020884606
:100C20008DF810000DF11107002D33DD20464146EF
:100C300000F02CFE01460A4607F1080304200A27AB
:100C4000B2FBF7F707EB870EA2EB4E02303203F848
:100C5000012C0A22B7FBF2F202EB820EA7EB4E0741
:100C60003037401E03F8027DE9D1083D002D03F125
:100C70000807D9DD084600F01DFE02460B46204657
:100C8000414600F025FE00222F4B00F07DFB04467C
:100C90008846CBE70DF111003F1A0DF1110404E075
:100CA0000198401E7F1E0190641C20783028F7D0E8
:100CB000BAF1660F02D10198401C04E0BAF1650F49
:100CC0000CBF01200020336BC3189F42B8BF7B1EAE
:100CD000002B1ED4BB4204DAE05C3528A8BF3920C3
:100CE00000DA30201946621E02EB010800E05B1EAC
:100CF00018F80179491E8742F9D0392802D1605C81
:100D0000401C6054002904D50198401C14465B1C0B
:100D10000190019800B200901BB22246494630462D
:100D200000F014F80EB0BDE8F0870000CBCCCC0C7E
:100D30000000244002FCFFFF0000E03FFFFF0F80A7
:100D4000A08601000000F03F84D797412DE9F847C5
:100D500083B005468A469146984600F02BFEB8F1CE
:100D6000000F406A2F6B067803DC4FF001080FF28A
:100D7000BC294AF02000BDF93040662808BF641C39
:100D800013D0672840F08F8014F1040F7ADBBC4247
:100D900078DA95F83800641C010702D4B845B8BF6A
:100DA000474620B23F1A48BF00270FFA84FAE86886
:100DB000A969BAF1000F23DC4A1C30234354002FE9
:100DC00003DC95F83800010702D5E8688654521C08
:100DD00017EB0A0FB8BF7C4224B2E71960424745BF
:100DE000B8BFB846AA6168620FFA88F4EC61E86897
:100DF000AB6922464946184400F098FB3F1B18E0B7
:100E000022B29045084416DA4246494600F08EFB6D
:100E1000A8694044A861AAEB0801002F696203DCBD
:100E200095F838100A0704D5E9680E54E869401CA3
:100E3000E861AF6299E0494600F078FBA869002FAD
:100E40005044A8EB040803DC95F838100A0702D5D3
:100E5000E9680E54401CA8610FFA88F08742EB68DD
:100E6000A869B8BFB8460FFA88F209EB0A0118441E
:100E700000F05CFBA9690FFA88F00144A961381AF7
:100E8000686272E0B84504DA95F838100A0758BF6E
:100E900047467F1E48BF0027BAF1670F0CBF4FF0CF
:100EA000650A4FF0450AA969EB68481CA861002F44
:100EB00019F8012B5A5403DC95F838100A0719D594
:100EC000E968431CAB610E54002F13DDA8F1010645
:100ED00030B28742D5F80CC0B8BF3E4632B2494660
:100EE0000CEB030000F022FBA86936B23018BF1BE0
:100EF000A8616F62E868A9690844002C80F800A026
:100F000003D42B224270811C03E02D2141706442E6
:100F1000811C00206A460AE023460A2493FBF4F46D
:100F200004EB8406A3EB460302F8013B401C24B209
:100F3000002CF1DC012806DC4AF02002652A04BFFF
:100F4000302201F8012B48B9302001F8010B07E0ED
:100F5000401E1DF80030303301F8013B0028F7DC5B
:100F6000EA68A8691044091AE96195F8380000F0A8
:100F7000140010280DD16A69A969686A8A18E9699C
:100F80008218A86A8A188218686B8242BCBF821ACB
:100F90002A6204B0BDE8F087F8B505460E4617464C
:100FA0001C46002074B117F8011BB068A847B06058
:100FB00030B1F06A401CF0620020641EF3D1F2BD33
:100FC0004FF0FF30F2BD0000686A6C747A4C00008C
:100FD0007072696E74665F733A20256E206469735F
:100FE000616C6C6F776564007072696E74663A202C
:100FF00062616420256E20617267756D656E740094
:101000007072696E74665F733A2062616420257342
:1010100020617267756D656E740000006E616E0010
:101020004E414E00696E6600494E4600300030B4B5
:10103000002513E050F8042BD30744BFA9F10103A6
:101040009A18091F042942F8045BFAD213468C0748
:1010500044BF15809B1CC90748BF1D7050F8041B76
:101060000029E7D130BC7047C9B202788A421AB170
:101070001CBF10F8012FF9E718BF00207047026865
:10108000531C03601170704780B500B906A0054974
:101090000B681BB122220021984701E000F08EFC72
:1010A000222002BDE02BFF1F636F6E7374726169B3
:1010B0006E742068616E646C65723A2062616420AF
:1010C0006D6573736167650000F10103810704D0EA
:1010D00010F8011B820781B1FAD10268A2F1013137
:1010E000914311F0803104BF50F8042FF6E709BA9C
:1010F000B1FA81F100EBD100401CC01A7047FF002B
:10110000C9B2830706D0521E22D310F8013B994280
:10111000F7D11FE0083A13D302F1040241EA01219A
:1011200041EA014150F8043B121F21BF4B40A3F19B
:10113000013C2CEA030C1CF0803FF3D0C9B2001F25
:10114000083210F8013B521E28BF91EA030FF8D86D
:1011500018BF0120401E7047BBBBE1B1B2F5803F14
:1011600080F07E80022A1ED98C46B1FBF2F102FB90
:1011700011C31B0443EA1043B3FBF2FC02FB1C3314
:1011800080B240EA0343B3FBF2F002FB103240EAC4
:101190000C4000237047022A05D98446B0FBF2F0C8
:1011A00002FB10C270474AB105D100F001024908A4
:1011B0005FEA3000704700220023704700F002BC55
:1011C0000B000200002100207047904271EB030CDD
:1011D000F6D3B3F5803F2FD2F0B5B3FA83F7B1FA67
:1011E00081F4A7F10F0E3D1B5340CEF1200602FA09
:1011F0000EF2F3415340B5F10F0746D80F3C2C4493
:101200004140C4F12006A040F1414140B1FBF3F65A
:1012100003FB1611A2FB0645001BA94102D2761E54
:101220008018594180EA010221FA0EF362FA0EF2A7
:1012300000215A403046F0BD30B4B1FBF3FC03FB53
:101240001C11A2FB0C45001BA94103D2ACF1010CFF
:101250008018594130BC02460B4660460021704759
:10126000B2F1807F65D3F0B5B2FA82F7B1FA81F4BA
:10127000C7F10F063D1B22FA06F307F1110EF241EA
:1012800020355A40B5F10F07B8D94140C4F12006C6
:10129000A040F1414140B1FBF3FC03FB1C11A2FB58
:1012A0000C45001BA94103D2BCF1010C8018594127
:1012B0000F2F12D30F3FC90341EA5041B1FBF3F6A0
:1012C00003FB1611A2FB0645D4EBC030A94102D2A4
:1012D000761E8018594146EACC3C07B34140C7F11D
:1012E0002006B840F1414140B1FBF3F603FB161173
:1012F000A2FB0645001BA94102D2761E8018594167
:1013000080EA010221FA0EF3C7F1200462FA0EF21C
:101310000CFA07F05A402CFA04F13043F0BD80EA91
:10132000010221FA0EF3002162FA0EF260465A40E1
:10133000F0BD8C46B1FBF2F102FB11C31B0243EA84
:101340001063B3FBF2FC02FB1C331B024CEA0020CF
:1013500043EA1063B3FBF2FC02FB1C331B024CEAB2
:10136000002043EA1063B3FBF2FC02FB1C331B02B8
:101370004CEA002043EA1063B3FBF2FC02FB1C3290
:101380004CEA002000237047B0B581EA030C0CF052
:10139000004C40F2FF7515EA11541DBF15EA1357B2
:1013A000AC42AF4239E0E41923EA455343F48013D9
:1013B000C90241F0004141EA505EC7021100A7FB9B
:1013C000020200284FF00000EEFB01204FF0000168
:1013D000E3FB072118BF42F00102401800214941F8
:1013E000E3FB0E01A4F580640F0302D252004041DA
:1013F000494154F101046CDD470872F1004250F19B
:10140000000051EB0451A1F580115CBF41EA0C01D1
:10141000B0BD4CEA05510020B0BD05EA1357AC42FF
:1014200014BFAF4241E050EA410E1CBF52EA430EE6
:1014300002E061460020B0BD24423C441BD15FEA7B
:10144000070EF6D0090302BF01460020AEF1140ECC
:10145000B1FA81F7AEEB070401FA07FE0C37C7F1CA
:10146000200100FA07F7C8404EEA000E23EA455370
:1014700043F48013A2E733F00043B3FA83F704BFC9
:10148000B2FA82FE77440B3FE41BB7F1200E2FBF68
:1014900002FA0EF3BB40C7F1200E22FA0EFE38BF4F
:1014A00043EA0E03BA40641C82E750EA410E14BFBF
:1014B00052EA430E6FF000014FF4001717EB430F91
:1014C0008ABF194617EB410FB5E74CEA05510020DA
:1014D000B0BDD4F10104B4F120070FDAC4F1200744
:1014E000520828BF42F0010210FA07F501FA07F787
:1014F000E1BF2A43E0403843E1400FE0352C98DC5F
:10150000C7F1200452EA400220FA07F218BF42F065
:10151000010231FA07F0A1400A43002172F10042B2
:1015200050F1000051EB0C01B0BD000062B38B071D
:1015300008D0521E11F8013B00F8013B00F0248056
:101540008B07F6D1830740F0208000BF103A07D305
:1015500030B4B1E83810103AA0E83810F9D230BCF5
:10156000530724BFB1E80810A0E8081044BF51F8A1
:10157000043B40F8043BD20724BF31F8022B20F88B
:10158000022B44BF0B7803707047121F17D35B0008
:1015900009D151F8043B20F8023B1B0C121F20F824
:1015A000023BF6D20BE051F8043B00F8013B1B0A6A
:1015B00020F8023B1B0C121F00F8013BF3D238BF8E
:1015C000121D521E24BF11F8013B00F8013BF8D850
:1015D0007047000010B5144600F002F8226010BDFC
:1015E000C1F30A5343B14A0012F5001F28D2A3F2F7
:1015F000FE32A1EB0251704750EA410C20D001F0BD
:10160000004C31EA0C01B1FA81F204BFB0FA80F368
:10161000D2180B3AB2F120032CBF00FA03F191402B
:1016200041EA0C013EBFC2F1200C20FA0CF3194331
:101630009040524240F2FD33D21A01EB0351704701
:1016400000227047F0B540F2FF7581EA030C0CF000
:10165000004C15EA11541DBF15EA1357AC42AF42B6
:10166000E5E0BC41C1F31301C3F31303801A9941B0
:1016700043F4801304D2641E40004941801859414C
:10168000C90241EA5051B1FBF3F603FB1611A2FB6C
:101690000675D7EBC020A94102D2761E80185941A9
:1016A000C90241EA5051B1FBF3FE03FB1E11A2FB3C
:1016B0000E75D7EBC020A94103D2AEF1010E801800
:1016C0005941890241EA9051760546EA8E2EB1FBD6
:1016D000F3F603FB1611A2FB0675D7EB8020A94198
:1016E00002D2761E80185941C90241EA50514EEA91
:1016F000060EB1FBF3F603FB1611A2FB0675D7EB42
:10170000C020A94102D2761E80185941C90241EA7F
:101710005051B1FBF3F703FB1711A2FB0735D3EBD5
:10172000C020A94167F100070CBF004247F0010744
:1017300066F3D5274FEA1E31B80814F5806412DD30
:10174000BD0775F1004250EB0E5051EB045111F5FD
:10175000801F5CBF41EA0C01F0BD4CF07F6141F09D
:10176000E0410020F0BDBD076D0840EA0E5041F495
:101770008011D4F10104B4F120060ADAC4F1200684
:101780000200E04001FA06F3E1401843B24015437D
:101790000EE0342C13DCC6F1200445EA40056D0848
:1017A00020FA06F2154321FA06F0A1400D4300216C
:1017B00075F1004250F1000051EB0C01F0BD00202A
:1017C0005FEA0C01F0BDCFB992185B41B3FA83F721
:1017D00004BFB2FA82F6BF190B3FB7F120062FBF44
:1017E00002FA06F3BB40C7F1200622FA06F638BF1C
:1017F0003343BA401CB1E419641E33E77F4231F031
:101800000041B1FA81F404BFB0FA80F6A4190B3C90
:10181000B4F120062FBF00FA06F1A140C4F1200662
:1018200020FA06F638BF3143A0403C1B1AE7AC4211
:101830001ABF05EA1357AF4212E050EA41061CBF37
:1018400052EA4306BFE750EA4107304661461CBFF3
:1018500041EA0551F0BD52EA430C08BFC143F0BD57
:1018600000204FF4001616EB410F98BF16EB430F04
:1018700008BF16EB410F24BFC14305E016EB430F31
:101880000CBF61464CEA0551F0BD0000400D4918FF
:1018900040EA81200CD2490DA1F58061491C40F03D
:1018A000004005DBD1F11F0154BFC840C01770478D
:1018B00000207047014648B1B0FA80F18840C91C49
:1018C000C1F58461090501EBD02140057047000096
:1018D00070B44FF0004591EA030F40F175806B4002
:1018E000841A71EB030603D2001BB1411219734134
:1018F0004FF4001C1CEB410F34BF7CEB430442E06F
:101900000C0DA4EB1356352E4FDC45EAC323DB0A3E
:1019100045EAC121C912B6F120050DDD63FA05F6CD
:10192000EB4086EA0305124218BF45F00105C018D6
:1019300051F100010CD213E062FA06F5F240554075
:10194000F3415A40B340F3405A408018594107D3FD
:1019500049085FEA30005FEA350528BF45F0010518
:1019600001F58011420875F1004250F1000041EB91
:1019700004514E0016F5001F70BC38BF70470020A0
:10198000090D090570471CEB410F10D252EA4306BE
:101990000BD0BCEB410F05D80C0DAB43661E342EAB
:1019A000B6DD02E0AB438018594170BC704770BC93
:1019B00070470000004870472C0CFF1F012000F00A
:1019C000B9B8000070470000841A71EB030604D216
:1019D0006E40001BB141121973414FF4001C1CEB07
:1019E000410F34BF7CEB430683E00C0DA4EB135690
:1019F000362E00F37C80012E45EAC32341DC43EA06
:101A0000525312BFD20292025B08240545EAC1215B
:101A100041EA5051D2EBC020994125D407D1B0FA08
:101A200080F610FA06F162D00020203608E0B1FA04
:101A300081F6B140C6F1200220FA02F21143B04013
:101A40004FEAF474B4EB465434F001064FEA7404E0
:101A50000AD8D6F50016760D04F00044F04061FA7D
:101A600006F25040F1404840C00A40EA415021F09F
:101A7000004128BF5FEA500550F1000044EBD1213E
:101A800035E0DB0A45EAC121C90AB6F120050EDDC1
:101A900042EA0242120CC5F1200603FA06F6EB40B8
:101AA00042EA06056D42984161F100010DE062FADB
:101AB00006F5F240554063FA06FC82EA0C02F34058
:101AC0005A406D42904161EB030111F4801F05D132
:101AD000641E620502D06D004041494121F480112D
:101AE000430875F1004350F1000041EB045170BC14
:101AF00070471CEB410F15D223F0004352EA430616
:101B00000BD04FEA4C0CBCEB410F04D80C0D661EF9
:101B1000342EB7DDEBE7801A994150EA410608BF41
:101B20000021E4E708BF1CEB430F28BF6FF0000162
:101B3000DDE700002021090326311820ABBEF9E7BC
:101B400000B0034000B00B400000000000000000A7
:101B50000000000000000000000000000000000085
:101B60000000000000004E6F6E4D61736B61626C8F
:101B70006500000000486172644661756C74000085
:101B8000000000004D656D4D616E6167656D656EAD
:101B90007400004275734661756C740000000000AB
:101BA000000055736167654661756C740000000044
:101BB0000000000000000000000000000000000025
:101BC0000000000000000000000000000000000015
:101BD0000000000000000000000000000000000005
:101BE0000000000000000000000000000053564309
:101BF000616C6C000000000000000000446562752C
:101C0000674D6F6E69746F72000000000000000085
:101C10000000000000000000000050656E64535694
:101C20000000000000000000005379735469636BEA
:101C30000000000000000000444D413000000000A2
:101C400000000000000000444D4131000000000091
:101C5000000000000000444D413200000000000080
:101C60000000000000444D4133000000000000006F
:101C700000000000444D413400000000000000005E
:101C8000000000444D41350000000000000000004D
:101C90000000444D4136000000000000000000003C
:101CA00000444D413700000000000000000000002B
:101CB000444D4138000000000000000000000044D6
:101CC0004D41390000000000000000000000444DBC
:101CD00041313000000000000000000000444D4190
:101CE000313100000000000000000000444D41318F
:101CF0003200000000000000000000444D4131337C
:101D000000000000000000000000444D413134009C
:101D1000000000000000000000444D41313500008B
:101D20000000000000000000444D415F4572726FEA
:101D3000720000000000004D434D00000000000054
:101D40000000000000004654464C00000000000067
:101D50000000000000526561645F436F6C6C697342
:101D6000696F6E004C56445F4C56570000000000EF
:101D70000000004C4C570000000000000000000074
:101D800000005761746368646F6700000000000022
:101D900000524E470000000000000000000000005C
:101DA00049324330000000000000000000000049FC
:101DB00032433100000000000000000000005350DA
:101DC00049300000000000000000000000535049AE
:101DD00031000000000000000000000053504932B4
:101DE000000000000000000000000043414E305F92
:101DF0004F525F4D425F6275660043414E305F4215
:101E000075735F4F666600000043414E305F457258
:101E1000726F72000000000043414E305F54785FE3
:101E20005761726E696E6743414E305F52785F57FB
:101E300061726E696E6743414E305F57616B655FDB
:101E40005570000000526573657276656435310027
:101E500000000000526573657276656435320000DB
:101E600000000043414E315F4F525F4D425F62754B
:101E7000660043414E315F4275735F4F66660000F6
:101E80000043414E315F4572726F720000000000E6
:101E900043414E315F54785F5761726E696E67439C
:101EA000414E315F52785F5761726E696E67434190
:101EB0004E315F57616B655F55700000005265736E
:101EC00065727665643539000000000052657365FF
:101ED000727665643630000000000055415254307F
:101EE0005F52585F54580000000055415254305F13
:101EF00045525200000000000055415254315F52DB
:101F0000585F54580000000055415254315F45520B
:101F10005200000000000055415254325F52585F99
:101F200054580000000055415254325F455252004F
:101F3000000000000055415254335F52585F54581E
:101F40000000000055415254335F455252000000DA
:101F500000000055415254345F52585F54580000FD
:101F6000000055415254345F4552520000000000B9
:101F70000055415254355F52585F545800000000DC
:101F800055415254355F4552520000000000004157
:101F90004443300000000000000000000000414405
:101FA00043310000000000000000000000434D50DD
:101FB000300000000000000000000000434D5031E0
:101FC0000000000000000000000000434D503200FF
:101FD0000000000000000000000046544D300000EA
:101FE00000000000000000000046544D31000000D9
:101FF000000000000000000046544D3200000000C8
:1020000000000000000000434D54000000000000EC
:1020100000000000000052544300000000000000D7
:102020000000000000526573657276656438330005
:102030000000000050495430000000000000000083
:102040000000005049543100000000000000000072
:102050000000504954320000000000000000000061
:102060000050495433000000000000000000000050
:102070005044423000000000000000000000005505
:1020800053423000000000000000000000005553E3
:1020900042444344000000000000000000454E455B
:1020A000545F313538385F54696D6572454E45541B
:1020B0005F5472616E736D69740000454E45545FE4
:1020C00052656365697665000000454E45545F457D
:1020D00072726F720000000000493253300000003D
:1020E00000000000000000005344484300000000CE
:1020F00000000000000000444143300000000000E8
:1021000000000000000044414331000000000000D6
:10211000000000000054534930000000000000009F
:10212000000000004D4347000000000000000000D8
:102130000000004C5054696D657200000000000002
:1021400000005265736572766564313032000000BC
:1021500000504F52544100000000000000000000F9
:10216000504F525442000000000000000000005098
:102170004F52544300000000000000000000504F88
:1021800052544400000000000000000000504F5274
:102190005445000000000000000000005265736517
:1021A00072766564313038000000005265736572E4
:1021B00076656431303900000000526573657276CF
:1021C00065643131300000000052657365727665D8
:1021D00064313131000000005265736572766564C8
:1021E00031313200000000526573657276656431EA
:1021F00031330000000052657365727665643131D9
:1022000034000000005265736572766564313135C3
:1022100000000000526573657276656431313600E6
:1022200000000052657365727665643131370000D5
:1022300000005265736572766564313138000000C4
:1022400000526573657276656431313900000000B3
:10225000008003400090034000800B4000F00F40DE
:1022600040F00F4080F00F40C0F00F4000F10F40F1
:102270000060064000700640F0000A1D30001800A3
:1022800032001801600018186400181A6E00181F38
:10229000780013187D00131A8200131C8C000E1294
:1022A00096000E15A0000E18AA000E1BB4000E1EFC
:1022B000C8000C1CE1000B1EFA000A1F00010908EF
:1022C0000090044000A0044000B0044000C004405E
:1022D00000D0044000A0064000B0064000C0064008
:1022E00000D0064000A00E4000B00E406A6C6B6D3E
:1022F0006E090F00505152530DC1110009030CD04B
:1023000012401520173F185019031A783200A00AFE
:1023100063E0ACFF650C6600670029142C1E2A00E0
:102320007E0C7F16802A814E8261836F847B858636
:10233000868E879788A489AF8AC58BD78CE88D2035
:102340004A00491347084B144C17460522992303AA
:10235000A6049B009CFFAB069E119F020C6100002F
:102360000C6100000C6100000C6100000C610000B9
:102370000C6100000C610000FFFFFFFFFFFFFFFF8B
:102380000E6100000C6100000C610000FFFFFFFF08
:10239000FFFF000002040101E42BFF1F342CFF1F8C
:1023A000E42BFF1FE42BFF1F00000000E42BFF1FA6
:1023B00000000000A80CFF1F940CFF1F000000008D
:1023C000000000000000000000000000000000000D
:1023D00000000000000000000000000001320000CA
:1023E00000000000000000000000000000000000ED
:1023F0000000000000001FCC000C000000000000E6
:10240000000008003000600008003000600000009C
:10241000022003FC1E20022003FC1E2002200000DC
:1024200000000E1811043FFF10840C78000000001B
:102430000F0010840F3800C007781884007800005F
:1024400000780F8410C411240E9800E40084000862
:10245000080068007000000000000000000000009C
:1024600000000000000007E01818200440020000EF
:10247000000040022004181807E0000000000000DF
:102480000240024001800FF0018002400240000043
:102490000080008000800FF8008000800080000035
:1024A0000001000D000E0000000000000000000010
:1024B000000000800080008000800080008000809C
:1024C0000000000C000C00000000000000000000F4
:1024D00000000006001800600180060018002000BF
:1024E000000007F0080810041004080807F00000B6
:1024F0000000080408041FFC0004000400000000A1
:1025000000000E0C10141024104411840E0C000056
:1025100000000C1810041104110412880C70000043
:10252000000000E00320042408241FFC0024000015
:1025300000001F981084110411041088107000000E
:10254000000007F0088811041104188800700000CA
:1025500000001C00100010FC13001C001000000004
:1025600000000E3811441084108411440E3800000D
:1025700000000700088C10441044088807F0000091
:10258000000000000000030C030C0000000000002D
:102590000000000000010106000000000000000033
:1025A0000000008001400220041008081004000010
:1025B000022002200220022002200220022000002D
:1025C00000001004080804100220014000800000F0
:1025D00000000E001200100C106C10800F000000A4
:1025E00003E00C1813E4142417C4082807D00000D3
:1025F0000004003C03C41C40074000E4001C00042D
:1026000010041FFC1104110411040E880070000056
:1026100003E00C1810041004100410081C10000033
:1026200010041FFC100410041004080807F0000038
:1026300010041FFC1104110417C410040818000032
:1026400010041FFC1104110017C010000800000046
:1026500003E00C181004100410441C780040000023
:1026600010041FFC10840080008010841FFC1004E4
:102670000000100410041FFC1004100400000000EF
:1026800000030001100110011FFE100010000000E7
:1026900010041FFC110403801464181C10040000B3
:1026A00010041FFC1004000400040004000C0000CF
:1026B00010041FFC1F0000FC1F001FFC1004000082
:1026C00010041FFC0C04030000E010181FFC100095
:1026D00007F00808100410041004080807F00000B0
:1026E00010041FFC10841080108010800F00000068
:1026F00007F0081810241024101C080A07F2000024
:1027000010041FFC1104110011C011300E0C000444
:1027100000000E1C11041084108410441C380000AA
:102720001800100010041FFC100410001800000016
:1027300010001FF810040004000410041FF810001B
:1027400010001E0011E0001C007013801C0010001F
:102750001FC0103C00E01F0000E0103C1FC0000044
:102760001004180C163401C001C01634180C1004E3
:1027700010001C00130400FC13041C0010000000D7
:102780000804101C1064108413041C0410180000AA
:102790000000000000007FFE4002400240020000F6
:1027A000000030000C0003800060001C00030000EB
:1027B00000004002400240027FFE000000000000D6
:1027C0000000000020004000400040002000000009
:1027D00000010001000100010001000100010001F1
:1027E0000000400040002000000000000000000049
:1027F00000000098012401440144014400FC00044D
:1028000010001FFC00880104010400880070000013
:102810000000007000880104010401040088000029
:102820000000007000880104010411081FFC00046E
:10283000000000F8014401440144014400C80000C4
:102840000000010401040FFC110411041100180020
:10285000000000D601290129012901C90106000053
:1028600010041FFC008401000100010400FC0004AE
:1028700000000104190419FC000400040000000019
:102880000000000300010101190119FE0000000011
:1028900010041FFC0024004001B4010C01040000DE
:1028A0000000100410041FFC0004000400000000DD
:1028B000010401FC0104010001FC0104010000FC11
:1028C000010401FC008401000100010400FC00047B
:1028D000000000F8010401040104010400F80000F4
:1028E000010101FF0085010401040088007000005F
:1028F00000000070008801040104010501FF0001CF
:102900000104010401FC00840104010001800000B5
:10291000000000CC012401240124012401980000BE
:1029200000000100010007F801040104000000009C
:10293000010001F8000400040004010801FC000487
:10294000010001800170000C001001600180010095
:1029500001F0010C003001C00030010C01F0010059
:1029600000000104018C00740170018C010400005E
:10297000010101810171000E001801600180010058
:1029800000000184010C013401440184010C0000A9
:10299000000000000000000001003EFC4002400278
:1029A0000000000000000000FFFF00000000000029
:1029B0000000400240023EFC010000000000000058
:1029C00000006000800080004000400020002000E7
:1029D00038B504000D00200040B2002803D00228C2
:1029E00064D048D37DE0DFF8C804016851F08071FD
:1029F0000160280040B200280BD0022815D00ED369
:102A000004281ED017D3062827D020D307282AD081
:102A10002FE04FF48061412000F056FA2AE04FF495
:102A20004071042000F050FA24E04FF4407105207A
:102A300000F04AFA1EE04FF44071062000F044FA1C
:102A400018E04FF44071072000F03EFA12E04FF416
:102A50004071002000F038FA0CE09721DFF85404B0
:102A600000F0A2FA06E0A621DFF8480400F09CFA84
:102A700000E036E035E0DFF83804016851F000711D
:102A80000160280040B2002802D0012806D00BE0E7
:102A90004FF44071082000F017FA06E04FF440713F
:102AA0000D2000F011FA00E01BE01AE0DFF8080446
:102AB000016851F080710160280040B2002802D006
:102AC000012806D00BE04FF440710A2000F0FCF919
:102AD00006E04FF440710B2000F0F6F900E000E052
:102AE000FFE731BD2DE9F84F04000D0016001F006F
:102AF000200040B2002811D0200040B2012803D0AD
:102B0000200040B2022803D1280040B2022805DB91
:102B100040F28511DFF89C0300F046FA290049B223
:102B2000200040B2FFF754FFDFF89003D0F8009088
:102B30004FF47A7000FB09F94846000CB0FBF6FA36
:102B40005FF0000B504680B250FA0BF0012802DB18
:102B50001BF1010BF6E75846C0B2082805DB4FF41D
:102B6000D071DFF8500300F01FFA484630FA0BF03E
:102B7000B0FBF6F0010089B2DFF8442323005BB21A
:102B800042F82310210049B2002903D0022915D0B0
:102B90000AD31DE0010089B2491C01FB07F1642240
:102BA000B1FBF2F1884613E0010089B2491C01FB38
:102BB00007F16422B1FBF2F1884609E0010089B215
:102BC000491C01FB07F16422B1FBF2F18846FFE7E3
:102BD000DFF8F012220052B251F822202B005BB233
:102BE00002EBC30223005BB251F82330AC464FFA2C
:102BF0008CFC03EBCC03DB6833F00403D3602200CE
:102C000052B251F822202B005BB202EBC302282300
:102C1000D3605A46D2B212F0070252F008022300E3
:102C20005BB251F823301A60020092B223005BB20B
:102C300051F823309A60002223005BB251F8233010
:102C4000DA64220052B251F822202B005BB202EB70
:102C5000C30243469BB21361002223005BB251F8CA
:102C600023104A60BDE8F18F2DE9F04180460C0049
:102C700015000027404640B2002811D0404640B21F
:102C8000012803D0404640B2022803D1200040B2C0
:102C9000022805DB4FF4F371DFF8180200F084F925
:102CA000404640B2002803D0022813D009D31AE0CE
:102CB000652D05D34FF4F671DFF8F80100F074F9D3
:102CC00011E0652D05D34FF4F871DFF8E80100F04D
:102CD0006BF908E0652D05D34FF4FA71DFF8D401E4
:102CE00000F062F9FFE7DFF8D801414649B250F839
:102CF0002100414649B2002903D0022911D008D34E
:102D000017E0411C01FB05F16422B1FBF2F10E005A
:102D10000FE0411C01FB05F16422B1FBF2F10E0052
:102D200007E0411C01FB05F16422B1FBF2F10E004A
:102D3000FFE7DFF89011424652B251F8221022000C
:102D400052B201EBC2010E61BDE8F08110B5040082
:102D5000200040B2012808D0200040B2022804D050
:102D600040F2DB21534800F01FF9200040B2012857
:102D700002D0022810D01FE04D48016851F00071C8
:102D800001604FF4E0610C2000F09EF84FF4E06128
:102D90000D2000F099F814E04748016851F0807167
:102DA00001604FF4C0610A2000F08EF84FF4C0615A
:102DB0000B2000F089F804E040F213313D4800F0A8
:102DC000F3F84048210049B250F82110496D51F004
:102DD0000401220052B250F822205165210049B26C
:102DE00050F82110D1F8801051F00801220052B2A1
:102DF00050F82220C2F880100021220052B250F870
:102E00002220D1644FF6FF71220052B250F82220E6
:102E10009160210049B250F82110D1F8801051F092
:102E20000101220052B250F82220C2F88010210085
:102E300049B250F82110496D51F00101220052B2FF
:102E400050F8222051650021220052B250F8220091
:102E5000416010BD10B50400200040B2012808D028
:102E6000200040B2022804D04FF44C71114800F009
:102E70009BF81448210049B250F82100406800B284
:102E800010BD10B50400200040B2012808D0200079
:102E900040B2022804D040F23E31064800F084F8E7
:102EA00000200849220052B251F82210486010BD9B
:102EB0003C8004409C5D000030800440D82BFF1F04
:102EC000C427FF1F200BFF1F30B42B4B1C684FF48F
:102ED00000750200D2B2520995402C431C60274B6A
:102EE0000200D2B2521153F82240012510F01F0205
:102EF0009540C4F8A0500200D2B2521153F82220DB
:102F00000300DBB213F01F0342F8231030BC7047FC
:102F100030B4194B1C684FF400750200D2B252094C
:102F200095402C431C60154B0200D2B2521153F84D
:102F30002240012510F01F029540C4F8A05031F442
:102F4000E0610200D2B2521153F822200400E4B230
:102F500014F01F0452F8242012F4E062114302001E
:102F6000D2B2521153F822200300DBB213F01F0338
:102F700042F8231030BC704738800440900BFF1F8C
:102F8000DFF800F0DD0CFF1FDFF800F0070DFF1F7A
:102F9000BFF34F8F46490A6812F4E0624548024386
:102FA0000A60BFF34F8FFEE738B504000D00002024
:102FB00000F08EF82A0021003F4800F0C9F80020F8
:102FC00000F0A6F84FF47A7000F0EFF8F2E738B5A9
:102FD00004000D00210049B2002000F0F8F92000A3
:102FE00032BD10B50024042000F00CFA042000F0DB
:102FF00043FA002842D1002000F06AF8042000F0D3
:103000003BFA012801D101200400002000F080F8E3
:103010002A4800F09DF84FF4FA7000F0C6F820003E
:10302000C0B20128EAD1042000F026FA0028E5D138
:10303000042000F021FA002806D1002000F068F8F2
:10304000642000F0B2F8F3E7042000F015FA01283C
:1030500006D1002000F05CF8322000F0A6F8F3E77B
:10306000174800F075F8FFF78BFF642000F09DF81B
:103070000020FFF789FFFFF78BFFBFE710BD10B5FA
:1030800010480468012000F023F8012000F040F807
:103090000D492200D2B20F2042430A442100C9B296
:1030A0000A4800F055F84FF47A7000F07EF8ECE72B
:1030B0000CED00E00400FA05EC5E0000C8600000C2
:1030C000685F000004ED00E01804FF1FE85C0000EA
:1030D00010B50400200040B2042808D201220121CA
:1030E0001A4823005BB2C05C00F0DEF90FE0042058
:1030F00004002000441E40B2002808D00122012113
:10310000124823005BB2C05C00F0CEF9F1E710BDBD
:1031100010B50400200040B2042806D20B4821005C
:1031200049B2405C00F056FA0DE004200400200093
:10313000441E40B2002806D00448210049B2405C39
:1031400000F048FAF3E710BD00000000C40BFF1FB9
:103150000EB4C0B5024603A800210190009101AB56
:103160000121044878440C30FDF756F906BC5DF89F
:1031700010FB00BF092F000010B50400002C13D075
:10318000B4F1807F03D329210E48FFF70DFF0E48CD
:10319000002101600D490C6000210D4A11600521DC
:1031A00001600168C903FCD510BD10B50400200002
:1031B000441E002804D007480068FFF7DDFFF6E74B
:1031C00010BD00006C5C000010E000E014E000E0C6
:1031D00018E000E0D02BFF1F2DE9F84304000D009C
:1031E000200040B2002808D0022828D016D3042896
:1031F00047D035D3052855D065E0DFF8F0010168E8
:1032000051F4806101604FF440716620FFF75CFE6D
:103210004FF440716720FFF757FE54E0DFF8CC0110
:10322000016851F4006101604FF440714320FFF7E1
:103230004BFE4FF440714420FFF746FE43E0DFF8B9
:10324000AC01016851F480510160DFF8A46168218C
:103250003000FFF7A9FE72213000FFF7A5FE32E033
:10326000DFF88801016851F4005101604FF44071AA
:103270005020FFF729FE4FF440715120FFF724FE44
:1032800021E0DFF87001016851F4806101604FF4C2
:1032900040719920FFF718FE4FF440719820FFF716
:1032A00013FE10E0DFF84C01016851F40061016089
:1032B0004FF440718920FFF707FE4FF440718820DA
:1032C000FFF702FEFFE7DFF83061200040B256F85A
:1032D0002000C07810F0F300210049B256F8211008
:1032E000C870200040B256F820008078210049B212
:1032F00056F821108870200040B2002803D020002A
:1033000040B2012806D1DFF8F40007684FF47A7064
:10331000474305E0DFF8E80007684FF47A70474359
:103320002801B7FBF0F8404680B2B0F5005F02DB41
:1033300041F6FF708046B7FBF5F9404680B2B9EB25
:103340000019484680B2202803DBDC212848FFF71B
:103350002BFE200040B256F82000007810F0E0006C
:10336000C8F304210143220052B256F82220117002
:10337000210049B256F8211081F80180210049B29C
:1033800056F82110897A11F0E00119F01F020A4362
:1033900023005BB256F823309A72220052B256F8DC
:1033A0002220127C52F0880223005BB256F82330B0
:1033B0001A74220052B256F82220D27852F00C022F
:1033C00023005BB256F82330DA70BDE8F1830A4A75
:1033D00003005BB252F823301B791B06F7D50300BC
:1033E0005BB252F82320D171704700003480044052
:1033F000505E000028800440A40BFF1FD02BFF1F4D
:10340000D82BFF1F38B50400200040B207280EDA81
:10341000244D00220021200040B2285C00F044F836
:103420000321200040B2285CFFF772FD15E0072061
:1034300004002000441E40B200280ED0194D002286
:103440000021200040B2285C00F02EF8032120006B
:1034500040B2285CFFF75CFDEBE731BD10B504001E
:103460001048210049B2405C00F0D1F8002801D199
:10347000002000E0012010BD10B50400200040B283
:10348000FFF7ECFF00280AD10A20FFF78EFE20008C
:1034900040B2FFF7E3FF002801D1002000E0012047
:1034A00010BD0000BC0BFF1FF8B504000D00160096
:1034B0004FF480712000C0B2FFF706FD280040B233
:1034C000002812D161482100C9B2491150F82110D9
:1034D0002200D2B2521150F822004269012314F0A6
:1034E0001F0083409A434A6138E00121574A200077
:1034F000C0B2401152F820002300DBB25B1152F839
:1035000023305B6914F01F0711FA07F73B4343614F
:103510003000C0B2002811D12000C0B2401152F8D2
:103520002000036814F01F00814033EA01012000ED
:10353000C0B2401152F8200001600FE02000C0B27C
:10354000401152F82000036814F01F008140194315
:103550002000C0B2401152F820000160F1BD70B5EA
:1035600004000D00394E2000C0B2401156F8200072
:10357000406914F01F01C840C00703D463213448D8
:10358000FFF712FD2800C0B2002811D12000C0B200
:10359000401156F820000168012214F01F008240FB
:1035A00091432000C0B2401156F82000016010E0A5
:1035B0002000C0B2401156F820000168012214F02A
:1035C0001F00824011432000C0B2401156F8200075
:1035D000016070BD38B504001C4D2000C0B2401120
:1035E00055F82000406914F01F01C840C00703D4FB
:1035F0007B211748FFF7D8FC2000C0B2401155F8D6
:103600002010012214F01F008240CA6031BD38B57D
:1036100004000E4D2000C0B2401155F82000406952
:1036200014F01F01C840C00703D58C210848FFF7DC
:10363000BBFC2000C0B2401155F82000006914F016
:103640001F04E04010F0010032BD00002C0BFF1FF2
:10365000D85D0000704738B500252800C0B20828A2
:1036600023DA0021B5F15000C0B200F01FF80021AC
:10367000002000F01BF80021102000F017F80020B7
:1036800004002000C0B280280DDA0121DFF84004D8
:103690002200D2B200EBC2002A00D2B2805C00F05D
:1036A00005F8641CEDE76D1CD7E731BD38B50400A3
:1036B0000D002800C0B2002807D02300DBB2402252
:1036C0003C21012000F0AEFA06E02300DBB200222C
:1036D0003C21012000F0A6FA31BD38B500252800B4
:1036E000C0B2082813DA002004002000C0B28028ED
:1036F0000BDADFF8DC032100C9B200EBC1002900BE
:10370000C9B200224254641CEFE76D1CE7E7FFF7E3
:10371000A2FF31BDF0B5030000241800C0B280281C
:1037200003DA0800C0B2402800DB43E00800C0B262
:10373000082590FBF5F5D5F107050800C0B208276C
:1037400090FBF7F607FB16060120D6F1070710FAE3
:1037500007F71000C0B2002816D0DFF874031C0071
:10376000E4B200EBC404AC465FFA8CFC9E465FFA00
:103770008EFE00EBCE00AE465FFA8EFE10F80E0015
:10378000384304F80C0015E0DFF844031C00E4B2F1
:1037900000EBC404AC465FFA8CFC9E465FFA8EFEDA
:1037A00000EBCE00AE465FFA8EFE10F80E00B84376
:1037B00004F80C00F0BD2DE9F84F05000E001F00C5
:1037C0000A9CB246B2F120008DF800005FF0000BB9
:1037D00058463900C0B2C9B288424FD23800C0B290
:1037E0000C280CD1DFF8EC129DF800200C2042438D
:1037F00001EB02005946C9B2405C804609E0DFF89F
:10380000D8029DF80010090108445946C9B2405C2D
:103810008046002081464846C0B208282BDA5FEA7D
:10382000086008D52200D2B23100C9B22800C0B267
:10383000FFF770FF0DE02000C0B2002801D1012287
:1038400000E00022D2B23100C9B22800C0B2FFF7B6
:1038500061FF5FEA4808761C3100C9B25046C0B229
:10386000091A3800C0B2814202D156466D1C02E0EE
:1038700019F10109CFE71BF1010BA9E7BDE8F18FB1
:103880007CB504000E001500287800281CD020000C
:10389000C0B27B2802DB0020040010363000C0B22A
:1038A0003B2804DB002004002600FFF716FF012060
:1038B000009010232A783100C9B22000C0B2FFF76F
:1038C0007AFF08346D1CDFE773BD80B583490120A2
:1038D00000F008F91420FFF7BDFE0021AE20FFF72D
:1038E000E5FE0021D520FFF7E1FE00215020FFF783
:1038F000DDFE0021A820FFF7D9FE00213F20FFF7C1
:10390000D5FE0021D320FFF7D1FE00210020FFF7D4
:10391000CDFE00214020FFF7C9FE00218D20FFF7DA
:10392000C5FE00211420FFF7C1FE00212020FFF773
:10393000BDFE00210220FFF7B9FE0021A120FFF704
:10394000B5FE0021C020FFF7B1FE0021DA20FFF70D
:10395000ADFE00211220FFF7A9FE00218120FFF714
:10396000A5FE0021EF20FFF7A1FE0021D920FFF7DF
:103970009DFE0021F120FFF799FE0021DB20FFF7DB
:1039800095FE00213020FFF791FE0021A420FFF7D3
:103990008DFE0021A620FFF789FE0021AF20FFF752
:1039A00085FEFFF79AFE01BD2DE9FB4F88B09146D9
:1039B00002A8142100F0AAF9CDF804905FF0000AE3
:1039C0005046C0B2082814DA002080464046C0B2F3
:1039D00080280BDA3E484146C9B200EBC10051468F
:1039E000C9B20022425418F10108EFE71AF1010AA6
:1039F000E6E734A102A800F08DF902AA00215A20BE
:103A0000FFF73EFF364802682FA102A800F082F9B6
:103A100002AA10215A20FFF733FF2CA102A800F0C0
:103A200079F902AA30215A20FFF72AFF5FF0000B34
:103A30005846BDF8261080B288423DD2594689B218
:103A4000BDF82A004143BDF8260091FBF0F0ADF827
:103A50000000BDF80010BDF8280041430D00002013
:103A600006003000BDF8241080B2884221D2310017
:103A700089B2BDF828004143BDF8240091FBF0F065
:103A8000070015FA87F004000198005D002807D1AF
:103A900000225946C9B23000C0B2FFF73BFE06E033
:103AA00001225946C9B23000C0B2FFF733FE761C7E
:103AB000D7E71BF1010BBBE7FFF7CDFD0BB0BDE86E
:103AC000F08F0000696D670025642000503400000D
:103AD000D027FF1F903D0000E023000040420F0070
:103AE000C823FF1F2DE9F34FA1B00400200040B20E
:103AF00000280FD18048016851F04001016040F278
:103B0000232529006820FFF7DFF929006920FFF746
:103B1000DBF90EE07848016851F08001016040F265
:103B2000236529008120FFF7CFF929008020FFF7C6
:103B3000CBF901A871498022FDF708FD704D286876
:103B40004CF25131884201DA002606E028686D49BE
:103B5000884201DA012600E0022601274FF47A7834
:103B6000296808FB01F117FA06F222984243B1FBDB
:103B7000F2F0ADF802005FF0400B4FF6FF7A5846C6
:103B8000C0B200281ED0BBF1010BBDF8020001A994
:103B90005A46D2B231F81210401A00F0DBF8ADF8F4
:103BA0000000BDF80000002801D1D9460AE0BDF8A8
:103BB0000000514689B28842E1D2D946BDF80000E2
:103BC0008246DCE7504819F03F0151EA8611220095
:103BD00052B250F8222051708021220052B250F887
:103BE00022008170286808FB00F817FA06F601A881
:103BF0005FFA89F930F81900464398FBF6F023B0D4
:103C0000BDE8F08F81B05020ADF80000BDF8000095
:103C1000411EADF8001080B2002801D000BFF5E7CA
:103C200001B07047F8B507000C0015001E003648BB
:103C3000390049B250F82110897851F030013A002A
:103C400052B250F82220917061003A0052B250F8FE
:103C500022201171390049B250F82110C978890722
:103C6000F8D5390049B250F82110C97851F0020155
:103C70003A0052B250F82220D170390049B250F8BF
:103C800021100D71390049B250F82110C978890707
:103C9000F8D5390049B250F82110C97851F0020125
:103CA0003A0052B250F82220D170390049B250F88F
:103CB00021100E71390049B250F82110C9788907D6
:103CC000F8D5390049B250F82110C97851F00201F5
:103CD0003A0052B250F82220D170390049B250F85F
:103CE0002110897811F0CF013A0052B250F8220029
:103CF0008170FFF787FFF1BD34800440EC5B00006A
:103D0000D82BFF1FA1860100400BFF1F002200F0EF
:103D100025B800000CB430B583B00A4606A902915C
:103D2000044600250194009502AB01A90848784497
:103D30001E30FCF771FB019A157000284EBF044637
:103D40000198041B204603B030BC5DF80CFB00BF9B
:103D50002FD3FFFF002848BF4042704700B500BF87
:103D6000130096469446103928BFA0E80C50FAD8A4
:103D70005FEA417C28BF0CC048BF40F8042BC9074C
:103D800028BF20F8022B48BF00F8012B00BD00001F
:103D90000000000000000000000000000000000023
:103DA0003F400000000000000000300040003000F4
:103DB0004000000009000BC03D000BC03D000900A1
:103DC00018C024407FE0224031800000180024C049
:103DD0001B000D803240018003801C4027401C8066
:103DE00007400040100060000000000000000000DC
:103DF0000000000000001F80204040200000402004
:103E000020401F8000000000090006001F800600FF
:103E100009000000040004003F80040004000000CA
:103E2000001000600000000000000000040004001A
:103E30000400040004000000000000400000000036
:103E400000000000002001C0060038004000000013
:103E50001F802040204020401F80000000001040B4
:103E60003FC000400000000018C021402240244014
:103E70001840000010802040244024401B80000097
:103E800002000D0011003FC0014000003C802440B2
:103E900024402440238000001F80244024403440DC
:103EA000038000003000200027C038002000000000
:103EB0001B802440244024401B8000001C0022C0A2
:103EC000224022401F800000000000000840000047
:103ED000000000000000000004600000000000007E
:103EE000000004000A001100208040400900090081
:103EF0000900090009000000000040402080110076
:103F00000A000400180020002340240018000000CC
:103F10001F802040274029401F400000004007C06C
:103F200039000F0001C0004020403FC02440244021
:103F30001B8000001F802040204020403080000077
:103F400020403FC0204020401F80000020403FC054
:103F500024402E4030C0000020403FC024402E00AE
:103F6000300000000F00108020402240338002000B
:103F700020403FC0040004003FC0204020402040BB
:103F80003FC02040204000000060202020203FC093
:103F90002000200020403FC024400B0030C02040C3
:103FA00020403FC020400040004000C03FC03C00D7
:103FB00003C03C003FC0000020403FC00C40230035
:103FC0003FC020001F802040204020401F80000074
:103FD00020403FC024402400180000001F802140E2
:103FE000214020E01FA0000020403FC024402600C8
:103FF00019C0004018C024402440224031800000F5
:10400000300020403FC020403000000020003F80B2
:10401000004000403F80200020003E0001C007001B
:1040200038002000380007C03C0007C038000000FE
:10403000204039C0060039C0204000002000384030
:1040400007C0384020000000304021C026403840E2
:1040500020C00000000000007FE040204020000061
:10406000000070000C0003800040000000004020B1
:1040700040207FE000000000000020004000200001
:1040800000000000001000100010001000100010D0
:10409000000000004000000000000000000002805E
:1040A0000540054003C0004020003FC004400440DC
:1040B000038000000000038004400440064000002C
:1040C00000000380044024403FC000400000038003
:1040D0000540054003400000000004401FC024408C
:1040E00024402000000002E0055005500650042046
:1040F00020403FC00440040003C0004000000440D2
:1041000027C000400000000000100010041027E04D
:104110000000000020403FC00140070004C00440F0
:10412000204020403FC000400040000007C0040085
:1041300007C0040003C00000044007C0044004009E
:1041400003C00040000003800440044003800000DE
:10415000041007F0045004400380000000000380B6
:104160000440045007F00010044007C0024004005F
:1041700004000000000006400540054004C00000A7
:10418000000004001F80044000400000040007807D
:104190000040044007C000400400070004C0018044
:1041A00006000400060001C0070001C00600000070
:1041B000044006C0010006C00440000004100710BF
:1041C00004E00180060004000000044005C0064031
:1041D000044000000000000004007BE040200000DC
:1041E000000000000000FFF0000000000000402080
:1041F0007BE0040000000000400080004000200040
:104200002000400080B500F005F800F02CF800F028
:1042100061F801BDDFF888030021016001685029C1
:1042200009DA0021DFF87C23036842F823100168D3
:10423000491C0160F2E70021016001683C2911DAA4
:10424000DFF864130022036841F82320026851F864
:104250002210DFF85823036842F823100168491C34
:104260000160EAE77047DFF8380300210160016868
:10427000502908DA0021DFF838230368D154016897
:10428000491C0160F3E70021016001683C290CDA58
:10429000C84900220368CA540268895CC64A036898
:1042A000D1540168491C0160EFE77047C348002200
:1042B0000023C0E90223D0E90223C0E900237047AC
:1042C000BF4800220023C0E90223D0E90223C0E94D
:1042D0000023704730B400200021B84AC2E902012F
:1042E000D2E90245C2E90045B54AC2E90201D2E974
:1042F0000201C2E9000130BC704770B50400A84D4E
:1043000000202860FFF786FFAE490020086008689B
:104310003C2831DAAC4A002010601068502827DAB7
:104320002868431C2B60205C00281DD19D48136821
:1043300050F823305B1C166840F826301068A34BF9
:104340001B68984208D299480B6850F823305B1CD0
:104350000E6840F8263007E093480B6850F8233089
:104360005B1C0E6840F826301068401C1060D4E7D3
:104370000868401C0860CAE70020286028685028A8
:1043800012DA8848296850F82100052804D3012052
:1043900087492A68885403E0002085492A688854A0
:1043A0002868401C2860E9E70020286028683C282D
:1043B00021DA7E48296850F82100052804D301201D
:1043C0007D492A68885403E000207B492A68885484
:1043D0007548296850F82100052804D30120754943
:1043E0002A68885403E0002072492A6888542868A3
:1043F000401C2860DAE770BDF8B5FFF757FF744A34
:1044000001201060664B002018607048196804682D
:10441000A14214D2694ED6E90045106861491F686F
:1044200051F827104843002120186941C6E90001CE
:104430001868401C18601068401C1060E5E70168AF
:104440001160006818601868502814DA5B4ED6E9CD
:104450000245106853491F6851F82710484300214E
:1044600020186941C6E902011868401C18601068EC
:10447000401E1060E7E7F1BDF8B5FFF721FF484C9B
:1044800000202060524D0020286020683C2821DA5E
:104490004B4ED6E9002328684449276851F8271075
:1044A0004843002110185941C6E90001D6E902230A
:1044B00028683D49276851F8271048430021101803
:1044C0005941C6E902012068401C20602868401C50
:1044D0002860DAE7F1BD10B504002000FFF70DFFFA
:1044E000FFF78AFFFFF7C8FF10BD2DE9F043394EF3
:1044F00002200021DFF8C8C0DFF8C0E0DEE90023B9
:10450000DCE90089A0FB084500FB095501FB0855C3
:1045100012196B41C6E900232F4FDEE90245DCE9A1
:104520000223A0FB028900FB039901FB029914EB13
:10453000080055EB0901C7E90001D7E90001D6E9F8
:104540000023994204D801D3904201D2002000E018
:104550000120BDE8F08310B5184CD4E900231F48B2
:10456000FEF7F6FDD4E902231D48FEF7F1FD144CD9
:10457000D4E900231B48FEF7EBFDD4E902231A48D7
:10458000FEF7E6FD1348D0E900231848FEF7E0FDEA
:104590001148D0E900231648FEF7DAFD10BD0000EF
:1045A000B427FF1FCC23FF1FFC25FF1F0C25FF1F77
:1045B000EC26FF1F7827FF1F3C27FF1F700EFF1FF1
:1045C000800EFF1FBC27FF1FC027FF1F08610000D0
:1045D000B827FF1F900EFF1F980EFF1FDC5F000023
:1045E000F85F00001460000030600000A060000070
:1045F000B4600000DFF800F0250EFF1F10B4DFF8F4
:10460000A813020052B231F82210020052B2012A5D
:10461000C0F27D81020052B2112A80F27881DFF867
:104620008C23002313700B009BB2512B02DA002362
:1046300053707BE00B009BB2A12B02DA0123537075
:1046400074E00B009BB2F12B02DA022353706DE091
:104650000B009BB240F24114A34202DA03235370D1
:1046600064E00B009BB240F29114A34202DA0423EF
:1046700053705BE00B009BB240F2E114A34202DAFC
:104680000523537052E00B009BB240F23124A34249
:1046900002DA0623537049E00B009BB240F28124FA
:1046A000A34202DA0723537040E00B009BB240F2B2
:1046B000D124A34202DA0823537037E00B009BB2E7
:1046C00040F22134A34202DA092353702EE00B009A
:1046D0009BB240F27134A34202DA0A23537025E000
:1046E0000B009BB240F2C134A34202DA0B23537099
:1046F0001CE00B009BB240F21144A34202DA0C23EF
:10470000537013E00B009BB240F26144A34202DA03
:104710000D2353700AE00B009BB240F2B144A34258
:1047200002DA0E23537001E00F2353700B009BB28B
:10473000332B02DA0023937077E00B009BB2652BDA
:1047400002DA0123937070E00B009BB2972B02DA20
:104750000223937069E00B009BB2C92B02DA03239A
:10476000937062E00B009BB2FB2B02DA0423937080
:104770005BE00B009BB240F22D14A34202DA05234A
:10478000937052E00B009BB240F25F14A34202DA36
:104790000623937049E00B009BB240F29114A342B0
:1047A00002DA0723937040E00B009BB240F2C3147F
:1047B000A34202DA0823937037E00B009BB240F269
:1047C000F514A34202DA092393702EE00B009BB28A
:1047D00040F22724A34202DA0A23937025E00B005B
:1047E0009BB240F25924A34202DA0B2393701CE0DF
:1047F0000B009BB240F28B24A34202DA0C2393708D
:1048000013E00B009BB240F2BD24A34202DA0D2359
:1048100093700AE00B009BB240F2EF24A34202DA4D
:104820000E23937001E00F2393700B009BB21A2BA1
:1048300002DA0023D3706AE00B009BB2332B02DA5A
:104840000123D37063E00B009BB24C2B02DA0223EE
:10485000D3705CE00B009BB2652B02DA0323D370AC
:1048600055E00B009BB27E2B02DA0423D3704EE09E
:104870000B009BB2972B02DA0523D37047E00B00A5
:104880009BB2B02B02DA0623D37040E00B009BB240
:10489000C92B02DA0723D37039E00B009BB2E22B5D
:1048A00002DA0823D37032E00B009BB2FB2B02DA52
:1048B0000923D3702BE00B009BB2B3F58A7F02DA99
:1048C0000A23D37023E00B009BB240F22D14A342C5
:1048D00002DA0B23D3701AE00B009BB2B3F5A37F6F
:1048E00002DA0C23D37012E00B009BB240F25F148B
:1048F000A34202DA0D23D37009E00B009BB2B3F59B
:10490000BC7F02DA0E23D37001E00F23D37010BCFA
:10491000704770B50400200040B2FFF76FFE2448D6
:10492000017811F0FD010170017851F01001017062
:10493000204DB8202870204E3078C006FBD4307847
:10494000C0F381000228FAD11848C37882784178F0
:104950000078FFF74FFE1448210049B200EB8101B7
:10496000897811F01F01154A1170210049B200EB3E
:104970008101C97811F01F0151F04001104A1170F6
:1049800031788906FCD531784906FCD5297811F0B3
:104990003F0129703178C1F381010329FAD164B252
:1049A00030F82400C0B270BD480BFF1F8C0BFF1FF6
:1049B00001400640004006400640064004400640D4
:1049C0000540064001B4BDF80000002805D0BDF840
:1049D0000000401EADF80000F5E701B0704780B55B
:1049E000012201211A20FEF75FFD01220121192079
:1049F000FEF75AFD23211A20FEF78AFA23211920F7
:104A0000FEF786FA01BDF8B5704C01202060704EAB
:104A1000012030604FF4C870FFF7D4FF6D4D0020C7
:104A200028606D4F3868002803D1012028600020DD
:104A300011E001202860002020604FF4C870FFF7CB
:104A4000C1FF002030603868002803D001202860B2
:104A5000002000E00120F2BD38B55D4C0020206050
:104A60005A4D002028604FF4C870FFF7ABFF0120BB
:104A700020604FF4C870FFF7A5FF012028604FF4B5
:104A8000C870FFF79FFF31BD10B5514C002020606A
:104A90004FF4C870FFF796FF00204C4908604FF4B0
:104AA000C870FFF78FFF012020604FF4C870FFF738
:104AB00089FF002020604FF4C870FFF783FF10BD0E
:104AC00010B5434C002020604FF4C870FFF77AFF08
:104AD00001203E4908604FF4C870FFF773FF0120C2
:104AE00020604FF4C870FFF76DFF002020604FF486
:104AF000C870FFF767FF10BD38B5354C0020206047
:104B0000344D002028604FF4C870FFF75BFF012090
:104B100020604FF4C870FFF755FF2F480068002849
:104B200005D00120286000202060002004E0012042
:104B3000286000202060012032BD70B504000825E7
:104B40002800451EC0B2002817D0200603D501203A
:104B50001E49086002E000201C49086064004FF410
:104B6000C870FFF72FFF1A4E012030604FF4C87055
:104B7000FFF728FF00203060E2E770BDF8B5082598
:104B80000026144C002020602800451EC0B20028DA
:104B900014D076000E4F002038604FF4C870FFF735
:104BA00011FF012038604FF4C870FFF70BFF0A486F
:104BB00000680028E8D056F00106E5E701202060F3
:104BC000002003490860F6B23000F2BD6400FE43E5
:104BD0006800FE43E402FE436402FE4370B5040035
:104BE0000D0000262900C9B2200080B200F00BF8A9
:104BF000002806D1761C3000C0B21428F2D1002063
:104C000000E0012070BD38B504000D00FFF7FBFE89
:104C1000002801D1002019E04220FFF78EFFFFF7A6
:104C20006BFF002803D1FFF717FF00200EE02000E4
:104C3000C0B2FFF782FFFFF75FFF2800C0B2FFF7A7
:104C40007CFFFFF759FFFFF707FF012032BDF8B5E2
:104C500004000D00160000273200D2B2290089B2EC
:104C6000200000F00BF8002806D17F1C3800C0B2ED
:104C70001E28F1D1002000E00120F2BD70B5040033
:104C80000D001600FFF7BFFE002801D1002039E01B
:104C90004220FFF752FFFFF72FFF002803D1FFF755
:104CA000DBFE00202EE03000C0B2FFF746FFFFF72A
:104CB00023FFFFF7D1FEFFF7A6FE002801D1002059
:104CC00020E04320FFF739FFFFF716FF002803D14C
:104CD000FFF7C2FE002015E0280080B200280ED0A9
:104CE000FFF74CFF2070280080B2012802D1FFF7A7
:104CF000E7FE01E0FFF7C8FE641C6D1EECE7FFF75E
:104D0000ABFE012070BD0000012210F01F018A409F
:104D1000DFF8A81203005BB25B0941F8232070475B
:104D20000A00D2B2002A01D1C0B202E0D0F1640080
:104D3000C0B2704780B501218520FEF710FCA04865
:104D4000016851F00101016001BD10B504009D49E9
:104D5000542000F064F900218520FEF700FC2100BA
:104D600089B29948006841434FF47A7091FBF0F1A1
:104D7000002000F06BF94420FFF7C6FF10BD38B5E6
:104D8000924908680028FBD00D685FF0FF3008608A
:104D90001D242800E040C00701D500F0DFF931BD37
:104DA00080B500F0FBF901BD80B50020FEF790F959
:104DB0000120FEF78DF90220FEF78AF90320FEF7A5
:104DC00087F901BD80B5302000F08AFA01BD80B5B9
:104DD0005FF4E1310020FEF7FFF901BD70B57C4CB6
:104DE000002020707B4D00202870002068706878BB
:104DF000607042F210760023320003210020FDF79C
:104E000071FE0023320004210020FDF76BFE2278A2
:104E100001210520FEF748FB2A7801210820FEF732
:104E200043FB70BD80B50120FDF790FF0220FDF728
:104E30008DFF01BD80B5FEF748FD01BD80B50122A3
:104E400001218520FEF730FB4FF47570FFF77DFFE1
:104E50001420FEF7AAF94FF47570FFF776FF1420BF
:104E6000FEF7A3F94FF47570FFF76FFF1420FEF7FC
:104E70009CF94FF47570FFF768FF1420FEF795F961
:104E800001BD80B5544800F035F95449672000F061
:104E9000C6F85349102000F0C2F801BD80B5FFF7F5
:104EA00091FFFFF794FFFFF799FFFFF7BBFFFFF7B5
:104EB000C1FFFFF7C3FFFFF777FFFFF7E2FFFFF741
:104EC000A1F901BD10B504002000C0B2652801DBC6
:104ED000642004003E48447001782000C0B2FFF70F
:104EE0001FFF0200D2B203210020FDF7BDFE10BD5E
:104EF00010B504002000C0B2652801DB6420040066
:104F00003448447001782000C0B2FFF709FF020066
:104F1000D2B204210020FDF7A7FE10BD10B5040099
:104F20002000C0B2FFF7CEFF2000C0B2FFF7E0FFC5
:104F300010BD10B52B4C0021302000F0CCFA2070B1
:104F4000217840F6E4404143FF2091FBF0F060708F
:104F500010BD80B50120FDF77DFF1D49888002202E
:104F6000FDF778FF40421B4988800120FDF789FF4B
:104F70000220FDF786FF01BD80B500F018F94FF45F
:104F800016721549184800F0FFFA18480168491CC4
:104F9000016001BD80B516480368134A15480168D1
:104FA00015480068FEF700FD01BD80B50E48FFF70B
:104FB00092FAFFF79AFAFFF7CEFA01BD00E100E09E
:104FC0000C710340354D0000D82BFF1FA09004400A
:104FD000A00EFF1FA80EFF1FB00EFF1F7F4D000089
:104FE000A14D0000342CFF1F0811FF1FC823FF1F15
:104FF0000061000004610000FC60000010B50400C6
:105000004FF4007094FBF0F100FB1140002803D036
:105010001E210B48FDF7C8FF0A48046010BD70B59B
:1050200004000D00084E07480068B04203D030214C
:105030000348FDF7B9FF200040B246F8205070BD8C
:105040008C5E000008ED00E00000FF1F38B5050091
:105050000C00002C03D122211748FDF7A5FF1748AB
:10506000016851F4000101600020154908601548ED
:10507000611E2A0052B212018150290049B2090171
:105080000144C96851F001012A0052B212010244E0
:10509000D160290049B209010144896849084900E1
:1050A0002A0052B212010244916003212A0052B236
:1050B00012011044816031BD145E00003C80044048
:1050C0000070034000710340012210F01F018A406C
:1050D000704903005BB25B0941F82320704701224D
:1050E00010F01F018A406C4903005BB25B0941F874
:1050F0002320704710B504006848046000F072F87F
:105100000028FBD000F002F8002010BDE0B501201F
:1051100002904FF416700190002000901B235F480E
:1051200002685F49002000F0A9FA5E48016849085A
:10513000490001605720FFF7D2FF5B48016851F03A
:10514000010101600020FFF7BFFF58491B20FDF758
:10515000BBFE57491D20FDF7B7FE07BD10B5554CE6
:1051600094F90000042813D1032020705720FFF782
:10517000B6FF51485FF0006101604A4A136853F07E
:10518000010313600160454800684C49086004E071
:105190005720FFF7A4FF0220207010BD01204549D1
:1051A00008704148016851F001010160704770B515
:1051B000404C04202070404D5FF0FF362E60572099
:1051C000FFF782FF94F9000001280AD094F900004B
:1051D0000228F7D1042020702E605720FFF774FFBB
:1051E000F0E770BD7CB5002600208DF80000FFF7C9
:1051F000F6FB80211220FFF7F1FC002804D1304893
:10520000FDF7A6FF002043E03220FDF7CEFF0B2282
:1052100001216846FFF71BFD002804D12948FDF74E
:1052200097FF002034E09DF800102748FDF790FF1D
:10523000264C21782648FDF78BFF9DF80000212899
:1052400025D100252800217880B289B2884219D260
:10525000204E280080B206EB40004178280080B242
:1052600016F8100080B2FFF7B9FC002808D128001A
:1052700080B216F810101848FDF76AFF002007E00A
:105280006D1CDFE71548FDF763FF012000E00020FB
:1052900076BD000000E100E080E100E0DC2BFF1FB4
:1052A00050F00F400C8000402480004002010200BA
:1052B00012010900AC0CFF1FA090044010900040A8
:1052C0004C600000DC600000105F0000AD0CFF1FB0
:1052D000885F0000C80BFF1F64600000345F00009F
:1052E00038B5040025006DB26D112800C0B2002849
:1052F00002D001280DD019E09E48016851F00061EC
:1053000001609D48016831F0900101600168016011
:1053100010E09A48016851F0006101609648016808
:1053200031F4104101600168016003E033219448C9
:10533000FDF73AFE200040B2002800F083800128EB
:1053400000F0808003287DD0082849D009284CD05F
:105350000A284FD00B2852D00C2855D00D2858D0F1
:105360000E285BD00F285ED010286BD011285FD09C
:10537000122862D0172865D01A2863D01D2861D062
:105380001E285FD020285ED021285CD023285AD048
:10539000242859D025285CD026285FD0272862D021
:1053A000282865D0292868D02A286BD02B286ED0D1
:1053B0002C2871D02D2874D02E2877D02F287AD081
:1053C000302800F0828031287AD032287DD03728EA
:1053D0007BD03A2879D03D2877D03E2875D075E02B
:1053E00000212020FDF770FD74E000212120FDF751
:1053F0006BFD6FE000210720FDF766FD6AE00021EC
:105400000820FDF761FD65E000212220FDF75CFD2D
:1054100060E000212320FDF757FD5BE000214020E4
:10542000FDF752FD56E000214120FDF74DFD51E012
:1054300000219820FDF748FD4CE000219920FDF760
:1054400043FD47E046E045E000218020FDF73CFDBC
:1054500040E000218120FDF737FD3BE00021822064
:10546000FDF732FD36E000218320FDF72DFD31E010
:1054700000212020FDF728FD2CE000212120FDF750
:1054800023FD27E000212420FDF71EFD22E000215E
:105490002520FDF719FD1DE000212620FDF714FD54
:1054A00018E000212720FDF70FFD13E000212A203E
:1054B000FDF70AFD0EE000212B20FDF705FD09E0B8
:1054C00000211120FDF700FD04E003E09D212C48A0
:1054D000FDF76AFD31BDF8B504000D00260076B277
:1054E00076110027290049B2200040B200F01BF8D5
:1054F0002449300040B251F8200000680006F7D57A
:10550000300040B251F820000069320052B251F828
:105510002220126832F0800233005BB251F823106F
:105520000A6080B2F2BD70B4020052B2521110F0A3
:105530001F03144C0D006DB2AD0015F00C0555F0B5
:105540005005160076B254F82660B56004251600A2
:1055500076B254F82660F5601D00EDB215F01F0517
:1055600055F04005160076B254F82640256070BC10
:10557000704700003C8004401880044030800440A4
:10558000AC5C00001004FF1FF8B40300234800883F
:10559000ADF800001E000D001000421E00283BD098
:1055A000287804006D1C68462700FFB2FF11C75D14
:1055B0003770761C2700FFB2C7F38017C75D3770BE
:1055C000761C2700FFB2C7F34017C75D3770761C03
:1055D0002700FFB2C7F30017C75D3770761C27009E
:1055E000FFB2C7F3C007C75D3770761C2700FFB254
:1055F000C7F38007C75D3770761C2700FFB2C7F37B
:105600004007C75D3770761C2700FFB217F001070F
:10561000C05D3070761CBFE7F1BC7047FE10000023
:105620002DE9F84304000D002000800910F0070068
:10563000C0B246012000103810F03F00C0B2C700D1
:1056400017EB0608EDB218EBC500B0F101094846AA
:105650004146C0B2C9B288420ED300220021404662
:10566000C0B2FDF721FF4FF481714046C0B2FDF793
:105670002BFC18F10108EAE7BDE8F1832DE9F84FAA
:1056800004000D0016001F009DF92880DDF82C9005
:10569000DDF830A0404640B2002802D15FF0010B97
:1056A0000FE0404640B2012802D15FF0020B08E053
:1056B000404640B2022802D15FF0040B01E05FF0E7
:1056C000100B404640B2002805D15A48854202D30B
:1056D0005948A8421FD2404640B2012809D1554836
:1056E000854206D35548A84203D315F0030003288A
:1056F00011D1404640B2022809D14E48854206D316
:105700004F48A84203D315F00300002803D06121BD
:105710004C48FDF749FCB9F5004F03D363214948D4
:10572000FDF742FC4848016851F00201016047481A
:10573000016851F0020101604548210049B2490168
:105740004550210049B2490101440E610021220067
:1057500052B25201024491805946C9B2220052B25B
:10576000520102449182414649B2090211F4E061BA
:10577000424652B212F007021143220052B25201C5
:105780000244D18049464904490C220052B25201D8
:105790000244D18249464904490C220052B25201C6
:1057A0000244D1832B490A6832F080020A605946CC
:1057B000C9B2220052B2520102449160002122007B
:1057C00052B252010244D1605FEACA7102D4D9F1E7
:1057D000000100E00021220052B252010244916116
:1057E0004CF20A01220052B2520110448183380067
:1057F000C0B24009313050F080001749220052B247
:10580000885416493800C0B2FDF75EFB5946C9B24C
:105810002800FFF705FF124901220B6812FA04F075
:1058200083430B600F480168A2400A430260BDE851
:10583000F18F000010F00F4013F10F4012F10F40F4
:1058400010F10F40245D0000408004403C80044083
:105850000090004000800040001002400001010064
:105860000C80004024800040DFF800F0AB310000E5
:10587000DFF800F0A92F00004C48F02101700178FA
:105880000906FCD5007810F0710F01D0002000E06F
:105890000120704780B54648016851F4002101603D
:1058A0004448016851F4002101604048017809062C
:1058B000FBD5F02101700A20FFF7D6FF01BD1CB512
:1058C0000400210089B24FF4006041430091092097
:1058D000394908709DF80200384908709DF80100A8
:1058E000374908709DF8000036490870FFF7C4FF7B
:1058F000002801D100200DE0200080B2002808D14E
:105900007FF0010240F20C41200080B200F003F869
:1059100000E0012016BD7CB506000C00150031002A
:1059200089B24FF40060414311FA84F001902000E5
:1059300080B2042190FBF1F201FB1200002803D099
:10594000EA212148FFF794FF200080B240F60101D0
:10595000884203DBEC211C48FFF78AFF9DF8060014
:10596000164908709DF80500154908709DF8040057
:105970001449087000959DF80300144908709DF8BB
:105980000200134908709DF80100124908709DF843
:10599000000011490870062007490870FFF76CFFE6
:1059A000002801D1002000E0012076BD0000024067
:1059B00004F0014008F001400700024006000240E8
:1059C0000500024004000240605D00000B00024040
:1059D0000A0002400900024008000240F0B40F4EE5
:1059E0003468356855F47F0535600D0615F070652F
:1059F00055EA0075170517F470073D431F0417F4A7
:105A000070273D43064F3D6000252F00FFB29F42A7
:105A100001D26D1CF9E73460F0BC704700F0014022
:105A20004480044080B500F089F800F028F800F0C8
:105A30000AF8FDF7D6FA012201210420FDF734FD12
:105A400000F09CF8FEE710B52E4C0B20FEF761FF2E
:105A500020602D4922684FF47A7042430A6008683A
:105A60002A490968C1F30361491CB0FBF1F02849D8
:105A700008605FF47A310020FDF7AEFB10BD2DE920
:105A8000F0412449244888420AD000221400B4F589
:105A9000826F05D251F8242040F82420641CF6E7D8
:105AA000FFF7ACFA1D4B1E4A1E498E1A3000461EE7
:105AB000002804D010781870521C5B1CF6E71A4DB1
:105AC0001A4C671B3800471E002803D0002028709E
:105AD0006D1CF7E7DFF858C0DFF858E0DFF85880B2
:105AE000B8EB0E063000461E002808D09EF80000D5
:105AF0008CF800001EF1010E1CF1010CF2E7BDE86C
:105B0000F0810000D42BFF1FD02BFF1F44800440E6
:105B1000D82BFF1F000000000000FF1F1004FF1F14
:105B2000401B0000E0230000700EFF1F382CFF1FF9
:105B3000B00CFF1F68580000245A000080B500F028
:105B400007F80C490A884FF6FE7002400A8001BD32
:105B5000EFF3118072B608494CF220520A804DF6DC
:105B600028120A800100C9B2002900D162B670472C
:105B700000000000002005400E20054080B5FFF722
:105B80008DF90620FDF73EFC0520FDF73BFC0020CB
:105B9000FFF7C4F9FFF7CDF9FFF7DBF90120FDF7B7
:105BA00004FB0620FDF768FC00280DD1FFF7E4F99F
:105BB000FFF7FBF9FFF7EEF90020FDF7A9FA4FF424
:105BC000FA70FDF7F2FAE5E70520FDF755FC00282D
:105BD000E0D10120FDF79CFA4FF44870FFF7B5F8CB
:105BE0004FF4FA70FDF7E1FAD4E700001400160054
:105BF00018001A001C001E00220028001C002000B3
:105C0000240028002C003000380044003000380008
:105C100040004800500058006800800050006000BC
:105C2000700080009000A000C000F000A000C00044
:105C3000E0000001200140018001E00140018001FD
:105C4000C0010002400280020003C0038002000382
:105C5000800300048004000500068007000500069C
:105C6000000700080009000A000C000F433A5C55C9
:105C7000736572735C61313137365C4465736B7484
:105C80006F705C536D6172744361725C4D61696EDB
:105C90005C436869705C7372635C4D4B36305F5374
:105CA00079735469636B2E6300000000433A5C55BE
:105CB000736572735C61313137365C4465736B7444
:105CC0006F705C536D6172744361725C4D61696E9B
:105CD0005C436869705C7372635C4D4B36305F6126
:105CE00064632E63000000000A2A2A2A2A6465667B
:105CF00061756C745F69737220656E74657265643A
:105D0000206F6E20766563746F722025642A2A2ABC
:105D10002A2A0A0A257320496E7465727275707496
:105D200000000000433A5C55736572735C61313169
:105D300037365C4465736B746F705C536D6172745D
:105D40004361725C4D61696E5C436869705C73723B
:105D5000635C4D4B36305F646D612E630000000064
:105D6000433A5C55736572735C61313137365C441C
:105D700065736B746F705C536D6172744361725CB8
:105D80004D61696E5C436869705C7372635C4D4B16
:105D900036305F666C6173682E630000433A5C5571
:105DA000736572735C61313137365C4465736B7453
:105DB0006F705C536D6172744361725C4D61696EAA
:105DC0005C436869705C7372635C4D4B36305F6630
:105DD000746D2E6300000000433A5C557365727366
:105DE0005C61313137365C4465736B746F705C5342
:105DF0006D6172744361725C4D61696E5C43686988
:105E0000705C7372635C4D4B36305F6770696F2EE8
:105E100063000000433A5C55736572735C61313115
:105E200037365C4465736B746F705C536D6172746C
:105E30004361725C4D61696E5C436869705C73724A
:105E4000635C4D4B36305F5049542E6300000000B8
:105E5000433A5C55736572735C61313137365C442B
:105E600065736B746F705C536D6172744361725CC7
:105E70004D61696E5C436869705C7372635C4D4B25
:105E800036305F756172742E63000000433A5C55D2
